:100000000C942A000C943C000C943C000C943C0092
:100010000C943C000C943C000C943C000C943C0070
:100020000C943C000C943C000C943C000C943C0060
:100030000C943C000C943C000C943C000C943C0050
:100040000C943C000C943C000C943C000C943C0040
:100050000C943C0011241FBECFE5D4E0DEBFCDBF21
:1000600020E0A0E6B0E001C01D92A136B207E1F7A2
:100070000E9460000C94BB000C940000FC01808185
:1000800090E002C0959587956A95E2F7F1E08F2799
:1000900081700895209160008DEC289F812D11249E
:1000A000869586958695382F330F932F990F990F44
:1000B000930F291B922F9295907F892B85BB0895D2
:1000C0001ABA8FEF8BBB84BB15BA67E089E390E067
:1000D0000E943E00882331F080916000811104C0AD
:1000E000C0E003C0C0E001C0C1E0CC23D9F083ED83
:1000F00090E30197F1F700C0000067E089E390E02A
:100100000E943E008111F9CF83ED90E30197F1F752
:1001100000C00000809160008150809360000E94C8
:100120004A00D3CF60E089E390E00E943E0088233C
:1001300029F080916000833609F0C1E0CC2329F2D8
:1001400083ED90E30197F1F700C0000060E089E3E0
:1001500090E00E943E008111F9CF83ED90E301977A
:10016000F1F700C00000809160008F5F8093600015
:0A0170000E944A00AACFF894FFCFC6
:00000001FF
