S01600004448545F31312D707275656261732E737265634E
S11300000C942A000C9447000C9447000C9447006D
S11300100C9447000C9447000C9447000C94470040
S11300200C9447000C9447000C9447000C94E6028F
S11300300C9447000C9447000C9442030C94470022
S11300400C9447000C9447000C9447000C94470010
S11300500C94470011241FBECFE5D4E0DEBFCDBF12
S113006010E0A0E6B0E0EAEEF1E102C005900D92E6
S1130070A638B107D9F720E0A6E8B0E001C01D9288
S1130080AB3DB207E1F70E946C030C94F3080C94A7
S1130090000011B88DEF80B984EA86BF089584EC1E
S11300A086BF06B607FEFDCF83B1089584E886BFF8
S11300B006B607FEFDCF83B1089584E986BF06B670
S11300C004FCFDCF089583B984E886BF06B607FE15
S11300D0FDCF81B1887F883211F081E0089580E0FE
S11300E0089594EA96BF06B607FEFDCF91B1987FB6
S11300F0983011F0903171F483B984E886BF06B664
S113010007FEFDCF81B1887F883131F0803431F42E
S113011080E0089581E0089580E0089581E00895E5
S1130120CF93DF93CDB7DEB727970FB6F894DEBF32
S11301300FBECDBF80ED0E94710080ED0E94630070
S113014080E00E9463000E945D0081ED0E947100C6
S11301500E944F000E944F000E944F000E944F00D7
S11301600E944F000E944F000E94560027960FB62F
S1130170F894DEBF0FBECDBFDF91CF910895FC018F
S1130180408121E030E002C0220F331F6A95E2F77C
S1130190242B20830895FC01908121E030E002C0EB
S11301A0220F331F6A95E2F72095292320830895AF
S11301B087B3807F87BB64E088E390E00E94CB0034
S11301C065E088E390E00E94BF0066E088E390E089
S11301D00E94BF0083EC99E00197F1F700C0000092
S11301E066E088E390E00E94CB00B39915C093E0E9
S11301F09A95F1F7000066E088E390E00E94BF0062
S113020083EC99E00197F1F700C0000066E088E311
S113021090E00E94CB00D9CF66E088E390E00E9492
S1130220BF0083EC99E00197F1F700C0000066E09D
S113023088E390E00E94CB0064E088E390E00E94B1
S1130240CB0065E088E390E00E94CB0087B38F6722
S113025087BB089588BB64E088E390E00E94CB00EC
S113026065E088E390E00E94CB0066E088E390E0DC
S11302700E94BF0083EC99E00197F1F700C00000F1
S113028066E088E390E00E94CB000895CF93C82FE6
S113029082958F7088BB64E088E390E00E94BF0081
S11302A065E088E390E00E94CB0066E088E390E09C
S11302B00E94BF0083EC99E00197F1F700C00000B1
S11302C066E088E390E00E94CB00CF70C8BB64E096
S11302D088E390E00E94BF0065E088E390E00E941C
S11302E0CB0066E088E390E00E94BF0083EC99E0D5
S11302F00197F1F700C0000066E088E390E00E94F7
S1130300CB0064E088E390E00E94CB000E94D80018
S1130310CF910895CF93C82F82958F7088BB64E0E6
S113032088E390E00E94CB0065E088E390E00E94BF
S1130330CB0066E088E390E00E94BF0083EC99E084
S11303400197F1F700C0000066E088E390E00E94A6
S1130350CB00CF70C8BB64E088E390E00E94CB0080
S113036065E088E390E00E94CB0066E088E390E0DB
S11303700E94BF0083EC99E00197F1F700C00000F0
S113038066E088E390E00E94CB000E94D800CF9101
S11303900895CF93DF93FC0103C00E944601FE0140
S11303A0EF01219680818111F8CFDF91CF910895DB
S11303B08FE787BB85EA9EE00197F1F700C0000054
S11303C083E00E942A0181EE94E00197F1F700C0D6
S11303D0000083E00E942A0191E29A95F1F700005F
S11303E083E00E942A0181E28A95F1F7000082E00D
S11303F00E942A0191E29A95F1F7000088E20E9496
S11304008A0188E00E948A0181E00E948A0180E8D2
S11304100E948A018CE00E948A0108950F931F9321
S1130420CF93DF938C01EB0181E00E948A0182E08B
S11304300E948A01C8010E94C90180EC0E948A01BD
S1130440CE010E94C901DF91CF911F910F910895B0
S113045081B3806281BB82B3806282BB08950F93B3
S11304601F93CF93DF9300D000D01F92CDB7DEB798
S11304708C01FB0182B38F7D82BB83E991E10197FB
S1130480F1F700C0000082B3806282BB81B38F7D2C
S113049081BB90E00CC000C09E5F9D3340F081B3EF
S11304A0806281BB82B3806282BB80E07BC080B308
S11304B0382F307285FDEFCF20E00BC000C02E5FD7
S11304C0253638F091B3906291BB92B3906292BB9F
S11304D069C090B3892F807295FFF0CF80E00CC083
S11304E000C08E5F853640F081B3806281BB82B3E9
S11304F0806282BB832F56C08599F2CF60E024C00E
S1130500859BFECFABE0AA95F1F700C0859B0CC09C
S113051047E050E0481B510921E030E002C0220FBF
S1130520331F4A95E2F7922B8599FECF8F5F02C065
S113053080E090E0883020F3A1E0B0E0AC0FBD1F74
S1130540A60FB11D9C936F5F653090F381B38062F9
S113055081BB82B3806282BB29815A818B814C81A9
S1130560922F950F980F940F3D8193131AC030E08A
S1130570322F2227252B90E0982F8827842B99232C
S11305803CF06AE070E00E94E105D8016D937C9331
S1130590C9016AE070E00E94E1057183608381E033
S11305A001C081E00F900F900F900F900F90DF919A
S11305B0CF911F910F91089521B3226021BB90BD6B
S11305C089B988E98AB986E880BD08951F920F9297
S11305D00FB60F9211242F933F934F935F936F9312
S11305E07F938F939F93AF93BF93EF93FF938CB1BC
S11305F08093900080919000893539F481E090E0F7
S113060090936600809365000CC0809190008E34B6
S113061041F4109266001092650087E690E00E9413
S1130620C9018091650090916600892BD1F0809179
S113063090008D34B1F080919000843591F08091D8
S11306409000873571F0809190008A3451F0809148
S11306509000863431F080919000833511F08091C0
S11306609000FF91EF91BF91AF919F918F917F91F6
S11306706F915F914F913F912F910F900FBE0F900B
S11306801F9018951F920F920FB60F9211242F935B
S11306903F938F939F9384B195B19093A3008093DC
S11306A0A20020916300309164008217930741F007
S11306B0909364008093630086B1806486B903C01C
S11306C086B1806486B99F918F913F912F910F904D
S11306D00FBE0F901F901895CF93DF93CDB7DEB761
S11306E067970FB6F894DEBF0FBECDBF789485E050
S11306F090E00E94DC020E94D8010E94280280EC53
S113070084BB80E481BB0E94490080916500909184
S11307106600892B09F492C0809160008F5F8093FA
S11307206000883C90F380E487B910BE85E986B9FF
S113073086B1806486B93699FECF64B175B1709381
S11307408F0060938E0080E090E00E94BD0420E062
S113075030E040E251E40E9450056B017C0160915D
S113076061007091620080E090E00E94BD049B01F2
S1130770AC01C701B6010E944B0420E030E040E226
S113078051E40E944B0460938A0070938B00809321
S11307908C0090938D0066E870E088E890E00E94F9
S11307A02F02882309F4B1CF209188003091890069
S11307B0C90169E170E00E94E1058091D700909140
S11307C0D80068177907B1F0C901332314F48150B4
S11307D09F4F892F880F880B9093D7008093D80060
S11307E02032334024F085B38F7985BB03C085B3B1
S11307F0806685BB60918A0070918B0080918C002B
S113080090918D0020E030E040E650E40E944B05DA
S1130810882384F082B38F7B82BB9FEF29E688E133
S1130820915020408040E1F700C0000082B3806412
S113083082BB6BCF82B3806482BB67CF1AE01B8B11
S113084005E00A8B81E00E948A0129893A894B8953
S11308505C896D897E898F890E9490001F920F9315
S11308601F921F9384E790E09F938F938E010F5FF5
S11308701F4F1F930F930E940906B80183E790E06E
S11308800E940E0282E00E948A010FB6F894DEBF35
S11308900FBECDBF3ACF0E945F040C9411050E9495
S11308A00A0558F00E94030540F029F45F3F29F03F
S11308B00C94FA0451110C9445050C9400050E9403
S11308C0220568F39923B1F3552391F3951B550B36
S11308D0BB27AA2762177307840738F09F5F5F4F0F
S11308E0220F331F441FAA1FA9F335D00E2E3AF04E
S11308F0E0E832D091505040E695001CCAF72BD066
S1130900FE2F29D0660F771F881FBB1F26173707B6
S11309104807AB07B0E809F0BB0B802DBF01FF27E8
S113092093585F4F3AF09E3F510578F00C94FA04C7
S11309300C9445055F3FE4F3983ED4F38695779590
S11309406795B795F7959F5FC9F7880F911D9695A1
S1130950879597F90895E1E0660F771F881FBB1FFD
S1130960621773078407BA0720F0621B730B840BAA
S1130970BA0BEE1F88F7E0950895E89409C097FB39
S11309803EF490958095709561957F4F8F4F9F4F62
S11309909923A9F0F92F96E9BB279395F6958795A6
S11309A077956795B795F111F8CFFAF4BB0F11F469
S11309B060FF1BC06F5F7F4F8F4F9F4F16C0882310
S11309C011F096E911C0772321F09EE8872F762F46
S11309D005C0662371F096E8862F70E060E02AF087
S11309E09A95660F771F881FDAF7880F9695879573
S11309F097F9089597F99F6780E870E060E008959B
S1130A009FEF80EC089500240A9416161706180622
S1130A100906089500240A941216130614060506FE
S1130A200895092E0394000C11F4882352F0BB0F8F
S1130A3040F4BF2B11F460FF04C06F5F7F4F8F4FF2
S1130A409F4F089557FD9058440F551F59F05F3F2D
S1130A5071F04795880F97FB991F61F09F3F79F0DC
S1130A6087950895121613061406551FF2CF46955E
S1130A70F1DF08C0161617061806991FF1CF8695E0
S1130A807105610508940895E894BB2766277727C4
S1130A90CB0197F908950E94BD0508F48FEF0895DE
S1130AA00E9463050C9411050E94030538F00E940E
S1130AB00A0520F0952311F00C94FA040C94000517
S1130AC011240C9445050E94220570F3959FC1F3EF
S1130AD0950F50E0551F629FF001729FBB27F00DE8
S1130AE0B11D639FAA27F00DB11DAA1F649F66273D
S1130AF0B00DA11D661F829F2227B00DA11D621F8C
S1130B00739FB00DA11D621F839FA00D611D221F45
S1130B10749F3327A00D611D231F849F600D211D29
S1130B20822F762F6A2F11249F5750409AF0F1F0AC
S1130B3088234AF0EE0FFF1FBB1F661F771F881F15
S1130B4091505040A9F79E3F510580F00C94FA044F
S1130B500C9445055F3FE4F3983ED4F3869577956E
S1130B606795B795F795E7959F5FC1F7FE2B880FBB
S1130B70911D9695879597F90895990F0008550F3B
S1130B80AA0BE0E8FEEF16161706E807F907C0F00F
S1130B9012161306E407F50798F0621B730B840B17
S1130BA0950B39F40A2661F0232B242B252B21F4F1
S1130BB008950A2609F4A140A6958FEF811D811D91
S1130BC0089597FB072E16F4009407D077FD09D0FB
S1130BD00E94F50507FC05D03EF4909581959F4F42
S1130BE00895709561957F4F0895AA1BBB1B51E131
S1130BF007C0AA1FBB1FA617B70710F0A61BB70B89
S1130C00881F991F5A95A9F780959095BC01CD012D
S1130C100895AEE0B0E0EFE0F6E00C94CA080D8968
S1130C201E8986E08C831A8309838FEF9FE79E8356
S1130C308D83AE01475E5F4F6F89788DCE0101963B
S1130C400E942B06EF81F885E00FF11F10822E968B
S1130C50E4E00C94E608ABE0B0E0E1E3F6E00C94E9
S1130C60BC086C017B018A01FC0117821682838116
S1130C7081FFCCC1CE0101963C01F6019381F701BD
S1130C8093FD859193FF81917F01882309F4BAC173
S1130C90853239F493FD859193FF81917F018532EB
S1130CA029F4B60190E00E942208E7CF912C212C70
S1130CB0312CFFE1F315D8F08B3279F038F480321F
S1130CC079F08332A1F4232D20611DC08D3261F0AF
S1130CD0803369F4232D216016C0832D8260382E61
S1130CE0E32DE4603E2E2AC0F32DF8601DC037FCCE
S1130CF02DC020ED280F2A3040F08E32B9F436FC96
S1130D0081C1232D2064322E19C036FE06C08AE02C
S1130D10989E200D1124922E11C0EAE02E9E200DE3
S1130D201124222EF32DF0623F2E08C08C3621F4BC
S1130D30832D8068382E02C0883641F4F70193FD74
S1130D40859193FF81917F018111B3CF982F9F7D6E
S1130D509554933028F40C5F1F4F9FE399830DC083
S1130D60833631F0833771F0833509F059C021C0DF
S1130D70F801808189830E5F1F4F88248394912C0E
S1130D80530113C02801F2E04F0E511CF801A0805A
S1130D90B18036FE03C0692D70E002C06FEF7FEFB3
S1130DA0C5010E9417084C018201F32DFF773F2EE5
S1130DB016C0280122E0420E511CF801A080B18027
S1130DC036FE03C0692D70E002C06FEF7FEFC501EE
S1130DD00E940C084C01F32DF0683F2E820133FC75
S1130DE01BC0822D90E088169906B0F4B60180E20B
S1130DF090E00E9422082A94F4CFF50137FC8591F3
S1130E0037FE81915F01B60190E00E942208211013
S1130E102A9421E0821A91088114910471F7E8C0A0
S1130E20843611F0893641F5F80137FE07C0608138
S1130E307181828193810C5F1F4F08C06081718131
S1130E40072E000C880B990B0E5F1F4FF32DFF76B6
S1130E503F2E97FF09C090958095709561957F4FBF
S1130E608F4F9F4FF0683F2E2AE030E0A3010E948D
S1130E705E08882E861845C0853731F4232D2F7ED1
S1130E80B22E2AE030E025C0932D997FB92E8F36FB
S1130E90C1F018F4883579F0B5C0803719F0883777
S1130EA021F0B0C0E92FE061BE2EB4FE0DC0FB2DD1
S1130EB0F460BF2E09C034FE0AC0292F2660B22E6A
S1130EC006C028E030E005C020E130E002C020E1A7
S1130ED032E0F801B7FE07C060817181828193819D
S1130EE00C5F1F4F06C06081718180E090E00E5F4F
S1130EF01F4FA3010E945E08882E8618FB2DFF77E2
S1130F003F2E36FE0DC0232D2E7FA22E891458F4B9
S1130F1034FE0BC032FC09C0832D8E7EA82E05C082
S1130F20B82CA32C03C0B82C01C0B92CA4FE0FC04C
S1130F30FE01E80DF11D8081803321F49A2D997E04
S1130F40A92E09C0A2FE06C0B394B39404C08A2D8E
S1130F50867809F0B394A3FC11C0A0FE06C0B214B5
S1130F6088F4280C922C9B180EC0B21460F4B601BD
S1130F7080E290E00E942208B394F7CFB21418F4F0
S1130F802B1802C0982C212CA4FE10C0B60180E3BB
S1130F9090E00E942208A2FE17C0A1FC03C088E7CB
S1130FA090E002C088E590E0B6010CC08A2D8678F6
S1130FB059F0A1FE02C08BE201C080E2A7FC8DE2E1
S1130FC0B60190E00E942208891438F4B60180E347
S1130FD090E00E9422089A94F7CF8A94F301E80DD6
S1130FE0F11D8081B60190E00E9422088110F5CFA6
S1130FF0222009F442CEB60180E290E00E94220849
S11310002A94F6CFF6018681978102C08FEF9FEF75
S11310102B96E2E10C94D808FC01059061507040D5
S11310200110D8F7809590958E0F9F1F0895FC01AD
S11310306150704001900110D8F7809590958E0F03
S11310409F1F08950F931F93CF93DF93FB01238179
S113105021FD03C08FEF9FEF2CC022FF16C04681F5
S11310605781248135814217530744F4A081B1810B
S11310709D012F5F3F4F318320838C9326813781DD
S11310802F5F3F4F3783268314C08B01EC01FB0194
S11310900084F185E02D0995892BE1F6D801169697
S11310A08D919C911797019617969C938E93169702
S11310B0CE01DF91CF911F910F910895FA01AA27D4
S11310C0283051F1203181F1E8946F936E7F6E5F87
S11310D07F4F8F4F9F4FAF4FB1E03ED0B4E03CD035
S11310E0670F781F891F9A1FA11D680F791F8A1F18
S11310F0911DA11D6A0F711D811D911DA11D20D07F
S113110009F468943F912AE0269F11243019305D38
S11311103193DEF6CF010895462F4770405D419329
S1131120B3E00FD0C9F7F6CF462F4F70405D4A3376
S113113018F0495D31FD4052419302D0A9F7EACF3E
S1131140B4E0A6959795879577956795BA95C9F76D
S113115000976105710508959B01AC010A2E069460
S11311605795479537952795BA95C9F7620F731F19
S1131170841F951FA01D08952F923F924F925F9256
S11311806F927F928F929F92AF92BF92CF92DF9293
S1131190EF92FF920F931F93CF93DF93CDB7DEB7F8
S11311A0CA1BDB0B0FB6F894DEBF0FBECDBF09948C
S11311B02A88398848885F846E847D848C849B84E3
S11311C0AA84B984C884DF80EE80FD800C811B81F1
S11311D0AA81B981CE0FD11D0FB6F894DEBF0FBE20
S10D11E0CDBFED010895F894FFCF90
S11311EAC8CC00FFFF01004155544F4341524520EA
S11311FA4F464600686F75723A2025642C206D6943
S109120A6E3A2025640089
S9030000FC
