:100000000C94A7000C94C4000C94C4000C94C4007D
:100010000C94C4000C94C4000C94C4000C94C40050
:100020000C94C4000C94C4000C94C4000C94D90229
:100030000C94C4000C94C4000C94C4000C94C40030
:100040000C94C4000C94C4000C94C4000C94C40020
:100050000C94C40000407A10F35A00A0724E1809A4
:100060000010A5D4E80000E87648170000E40B541F
:10007000020000CA9A3B000000E1F50500008096EE
:100080009800000040420F000000A0860100000020
:10009000102700000000E8030000000064000000DA
:1000A00000000A00000000000100000000002C76A3
:1000B000D888DC674F0823DFC1DFAE59E1B1B796BE
:1000C000E5E3E453C63AE651997696E8E6C284261B
:1000D000EB898C9B62ED407C6FFCEFBC9C9F40F2F7
:1000E000BAA56FA5F490055A2AF75C936B6CF96773
:1000F0006DC11BFCE0E40D47FEF520E6B500D0ED38
:10010000902E0300943577050080841E080000209F
:100110004E0A000000C80C333333330F986E12833D
:100120001141EF8D2114893BE65516CFFEE6DB1811
:10013000D1844B381BF77C1D901DA4BBE4242032D6
:1001400084725E228100C9F124ECA1E53D271124CF
:100150001FBECFE5D4E0DEBFCDBF10E0A0E6B0E02B
:10016000E0EDFEE002C005900D92AA37B107D9F785
:1001700020E0AAE7B0E001C01D92A13AB207E1F782
:100180000E94E8020C9466070C94000011B88DEFF1
:1001900080B984EA86BF0895FC01408121E030E007
:1001A00002C0220F331F6A95E2F7242B20830895A3
:1001B000FC01908121E030E002C0220F331F6A95DC
:1001C000E2F7209529232083089587B3807F87BB9A
:1001D00064E088E390E00E94D80065E088E390E066
:1001E0000E94CC0066E088E390E00E94CC0083ECA3
:1001F00099E00197F1F700C0000066E088E390E025
:100200000E94D800B39915C093E09A95F1F70000C9
:1002100066E088E390E00E94CC0083EC99E00197CF
:10022000F1F700C0000066E088E390E00E94D8008B
:10023000D9CF66E088E390E00E94CC0083EC99E09F
:100240000197F1F700C0000066E088E390E00E94AB
:10025000D80064E088E390E00E94D80065E088E37D
:1002600090E00E94D80087B38F6787BB089588BB52
:1002700064E088E390E00E94D80065E088E390E0C5
:100280000E94D80066E088E390E00E94CC0083ECF6
:1002900099E00197F1F700C0000066E088E390E084
:1002A0000E94D8000895CF93C82F82958F7088BB85
:1002B00064E088E390E00E94CC0065E088E390E091
:1002C0000E94D80066E088E390E00E94CC0083ECB6
:1002D00099E00197F1F700C0000066E088E390E044
:1002E0000E94D800CF70C8BB64E088E390E00E9411
:1002F000CC0065E088E390E00E94D80066E088E3E7
:1003000090E00E94CC0083EC99E00197F1F700C0E7
:10031000000066E088E390E00E94D80064E088E393
:1003200090E00E94D8000E94E500CF910895CF93FD
:10033000C82F82958F7088BB64E088E390E00E94AC
:10034000D80065E088E390E00E94D80066E088E38A
:1003500090E00E94CC0083EC99E00197F1F700C097
:10036000000066E088E390E00E94D800CF70C8BB30
:1003700064E088E390E00E94D80065E088E390E0C4
:100380000E94D80066E088E390E00E94CC0083ECF5
:1003900099E00197F1F700C0000066E088E390E083
:1003A0000E94D8000E94E500CF910895CF93DF937B
:1003B000FC0103C00E945301FE01EF0121968081E0
:1003C0008111F8CFDF91CF9108958FE787BB85EA40
:1003D0009EE00197F1F700C0000083E00E94370122
:1003E00081EE94E00197F1F700C0000083E00E94E5
:1003F000370191E29A95F1F7000083E00E943701FE
:1004000081E28A95F1F7000082E00E94370191E2D3
:100410009A95F1F7000088E20E94970188E00E9417
:10042000970181E00E94970180E80E9497018CE08B
:100430000E949701089581B3806281BB82B380627C
:1004400082BB08950F931F93CF93DF9300D000D00A
:100450001F92CDB7DEB78C01FB0182B38F7D82BBCB
:1004600083E991E10197F1F700C0000082B3806257
:1004700082BB81B38F7D81BB90E00CC000C09E5FCA
:100480009D3340F081B3806281BB82B3806282BBC6
:1004900080E07BC080B3382F307285FDEFCF20E045
:1004A0000BC000C02E5F253638F091B3906291BB2F
:1004B00092B3906292BB69C090B3892F807295FF0E
:1004C000F0CF80E00CC000C08E5F853640F081B375
:1004D000806281BB82B3806282BB832F56C08599C4
:1004E000F2CF60E024C0859BFECFABE0AA95F1F788
:1004F00000C0859B0CC047E050E0481B510921E03B
:1005000030E002C0220F331F4A95E2F7922B859903
:10051000FECF8F5F02C080E090E0883020F3A1E042
:10052000B0E0AC0FBD1FA60FB11D9C936F5F65308F
:1005300090F381B3806281BB82B3806282BB2981E8
:100540005A818B814C81922F950F980F940F3D818A
:1005500093131AC030E0322F2227252B90E0982FDA
:100560008827842B99233CF06AE070E00E94800485
:10057000D8016D937C93C9016AE070E00E94800409
:100580007183608381E001C081E00F900F900F9034
:100590000F900F90DF91CF911F910F91089521B38C
:1005A000226021BB90BD89B988E98AB986E880BDFF
:1005B00008951F920F920FB60F9211248F938CB152
:1005C00080937A008F910F900FBE0F901F90189517
:1005D000CF93DF9300D000D0CDB7DEB7789485E01D
:1005E00090E00E94CF021A8219821C821B820E9414
:1005F000E5010E941B0281B3806481BB0E94C6009A
:100600000F2EF8ECFF2EF02DF39487EC8F15E0F70A
:10061000BE016D5F7F4FCE0101960E9422028823AA
:1006200009F466C089819A8169E170E00E948004C2
:1006300080919D0090919E006817790741F182E0BA
:100640000E94970189819A81992314F481509F4FC8
:10065000892F880F880B90939D0080939E0086E6DB
:1006600090E00E94D60189819A8169E170E00E9440
:100670008004CB014AE06CE870E00E94C8048CE87A
:1006800090E00E94D6018DE690E00E94D6018B8119
:100690009C8169E170E00E94800480919F009091AC
:1006A000A0006817790709F4AFCF80EC0E9497018A
:1006B00080E790E00E94D6016B817C81072E000CC0
:1006C000880B990B0E94F4032DEC3CEC4CEC51E4AC
:1006D0000E9480030BE710E022E042E00E94A804A1
:1006E000C8010E94D60186E790E00E94D6018CCF17
:1006F00081E00E94970184E790E00E94D60184CFB8
:100700000E9494030C9446040E943F0458F00E94F7
:10071000380440F029F45F3F29F00C942F04511164
:100720000C947A040C9435040E94570468F39923BE
:10073000B1F3552391F3951B550BBB27AA276217DD
:100740007307840738F09F5F5F4F220F331F441FEA
:10075000AA1FA9F335D00E2E3AF0E0E832D091501E
:100760005040E695001CCAF72BD0FE2F29D0660F0B
:10077000771F881FBB1F261737074807AB07B0E84E
:1007800009F0BB0B802DBF01FF2793585F4F3AF054
:100790009E3F510578F00C942F040C947A045F3F2F
:1007A000E4F3983ED4F3869577956795B795F795DA
:1007B0009F5FC9F7880F911D9695879597F90895C2
:1007C000E1E0660F771F881FBB1F6217730784075E
:1007D000BA0720F0621B730B840BBA0BEE1F88F76D
:1007E000E0950895E89409C097FB3EF490958095B4
:1007F000709561957F4F8F4F9F4F9923A9F0F92FE7
:1008000096E9BB279395F695879577956795B79564
:10081000F111F8CFFAF4BB0F11F460FF1BC06F5F4A
:100820007F4F8F4F9F4F16C0882311F096E911C05C
:10083000772321F09EE8872F762F05C0662371F07D
:1008400096E8862F70E060E02AF09A95660F771F91
:10085000881FDAF7880F9695879597F9089597F985
:100860009F6780E870E060E008959FEF80EC089556
:1008700000240A941616170618060906089500247F
:100880000A9412161306140605060895092E0394F9
:10089000000C11F4882352F0BB0F40F4BF2B11F46D
:1008A00060FF04C06F5F7F4F8F4F9F4F089557FDCC
:1008B0009058440F551F59F05F3F71F04795880FCE
:1008C00097FB991F61F09F3F79F087950895121665
:1008D00013061406551FF2CF4695F1DF08C0161611
:1008E00017061806991FF1CF8695710561050894C2
:1008F0000895E894BB2766277727CB0197F90895D9
:1009000097FB072E16F4009407D077FD09D00E94BC
:10091000940407FC05D03EF4909581959F4F08956F
:10092000709561957F4F0895AA1BBB1B51E107C0CD
:10093000AA1FBB1FA617B70710F0A61BB70B881F6F
:10094000991F5A95A9F780959095BC01CD010895FE
:10095000EF920F931F93CF93DF93E80147FD02C0FF
:1009600034E001C034E1042E000C550B57FF03C0E6
:10097000519541955109E32E022F242FAE010E947B
:10098000ED04CE01DF91CF911F910F91EF9008956B
:10099000BB274A3031F4992322F4BDE2909581952A
:1009A0009F4F0C94D404BB27FB015527AA27880F1F
:1009B000991FAA1FA41710F0A41B83955051B9F7D3
:1009C000A05DAA3308F0A95DA193009779F7B11152
:1009D000B1931192CB010C941F07A9E0B0E0E3EFB3
:1009E000F4E00C9435076A01122FB02E2BE3201788
:1009F00020F0FF24F394F00E02C02CE3F22E0F2D12
:100A000027E0AE014F5F5F4F0E944706BC0149815E
:100A1000842F8970813031F0E1FC06C0E0FE06C011
:100A200090E205C09DE203C09BE201C090E05E2D14
:100A3000507143FF3CC0911102C083E001C084E0CB
:100A4000811718F4212F281B01C020E051110BC081
:100A5000F601822F30E2882319F031938150FBCFC9
:100A6000C20ED11C20E0992329F0D6019C93F601F7
:100A700031966F01C6010396E2FE0AC03EE4D6013C
:100A80003C9341E411964C93119712963C9306C007
:100A90003EE6F601308341E641833283FC01322F8A
:100AA00040E2332309F442C041933150FACF42FF70
:100AB00044C0911102C083E001C084E0811718F4A2
:100AC000212F281B01C020E051110BC0F601822FFD
:100AD00030E2882319F031938150FBCFC20ED11C34
:100AE00020E0992329F0D6019C93F60131966F01FD
:100AF000C6010396E2FE0BC039E4D6013C933EE406
:100B000011963C93119736E412963C9307C039E650
:100B1000F60130833EE6318336E63283FC01322F24
:100B200040E2332319F041933150FBCFFC01E20F37
:100B3000F11D10828EEF9FEFA6C021E030E09111F1
:100B400002C020E030E0161617061CF4FB013196B7
:100B500002C0E1E0F0E02E0F3F1FBB2021F0EB2DA3
:100B6000F0E0319602C0E0E0F0E02E0F3F1FE12FF1
:100B7000F0E02E173F071CF4121B212F01C020E0CC
:100B80008E2D887159F4F601822F30E2882319F0F6
:100B900031938150FBCFC20ED11C20E0992329F064
:100BA000D6019C93F60131966F0151110BC0F601ED
:100BB000822F90E3882319F091938150FBCFC20ECE
:100BC000D11C20E00F2D060F9A81342F307144FF85
:100BD00003C0913309F40150101624F4093018F0C1
:100BE00008E001C001E0AB0177FF02C040E050E047
:100BF000FB01E41BF50BA1E0B0E0AC0FBD1FEA0F59
:100C0000FB1F8EE2A82E4B01801A91080B2D10E0DD
:100C10001195019511094F3FBFEF5B0721F4D601F4
:100C2000AC9211966D01641775072CF08416950629
:100C300014F4818101C080E3415051093196D601FD
:100C400011967D014017510724F0D6018C9367015E
:100C5000E2CF6417750739F4963320F4953319F40D
:100C6000311101C081E3F6018083F701822F90E208
:100C7000882319F091938150FBCFF701E20FF11D0A
:100C8000108280E090E02996ECE00C945107283027
:100C900008F027E03327DA01990F311D87FD9160B5
:100CA00000966105710539F432602E5F3D9330E3A3
:100CB0002A95E1F708959F3F30F08038710561056E
:100CC00009F03C5F3C5F3D93913008F08068911DD6
:100CD000DF93CF931F930F93FF92EF92192F987F7B
:100CE0009695E92F96959695E90FFF27E255FF4FC8
:100CF00099273327EE24FF24A701E70105900894E4
:100D0000079428F4360FE71EF81E491F511D660F81
:100D1000771F881F991F0694A1F70590079428F460
:100D2000E70EF81E491F561FC11D770F881F991F18
:100D3000661F0694A1F70590079428F4F80E491F42
:100D4000561FC71FD11D880F991F661F771F069456
:100D5000A1F70590079420F4490F561FC71FD81F0D
:100D6000990F661F771F881F0694A9F78491109525
:100D7000177041F0D695C79557954795F794E79426
:100D80001A95C1F7E4E5F0E0689415901591359156
:100D90006591959105907FE27395E118F10A430BF7
:100DA000560BC90BD009C0F7E10CF11E431F561FAB
:100DB000C91FD01D7EF4703311F48A95E6CFE894F4
:100DC000015030F0080F0AF40027021708F4202F12
:100DD0002395022F7A3328F079E37D932A95E9F75A
:100DE00010C07D932A9589F6069497956795379557
:100DF00017951794E118F10A430B560BC90BD0094C
:100E000098F023957E9173957A3308F070E37C9384
:100E10002013B8F77E9170617D9330F0839571E374
:100E20007D9370E32A95E1F71124EF90FF900F91E5
:100E30001F91CF91DF91992787FD90950895DC014F
:100E4000FC01672F71917723E1F7329704C07C9101
:100E50006D9370836291AE17BF07C8F308952F9208
:100E60003F924F925F926F927F928F929F92AF923A
:100E7000BF92CF92DF92EF92FF920F931F93CF9387
:100E8000DF93CDB7DEB7CA1BDB0B0FB6F894DEBF1E
:100E90000FBECDBF09942A88398848885F846E8444
:100EA0007D848C849B84AA84B984C884DF80EE808E
:100EB000FD800C811B81AA81B981CE0FD11D0FB697
:100EC000F894DEBF0FBECDBFED010895F894FFCFBB
:100ED00025643A25640054656D703A200020430073
:0A0EE00048756D3A2000202500003F
:00000001FF
