:100000000C942A000C9447000C9447000C94470071
:100010000C9447000C9447000C9447000C94470044
:100020000C9447000C9447000C9447000C946D020C
:100030000C9447000C9447000C94E8020C94470081
:100040000C9447000C9447000C9447000C94470014
:100050000C94470011241FBECFE5D4E0DEBFCDBF16
:1000600010E0A0E6B0E0E4E9FBE002C005900D92EC
:10007000A437B107D9F720E0A4E7B0E001C01D9292
:10008000A93DB207E1F70E941C030C94C8050C942B
:10009000000011B88DEF80B984EA86BF0895FC0195
:1000A000408121E030E002C0220F331F6A95E2F761
:1000B000242B20830895FC01908121E030E002C0D0
:1000C000220F331F6A95E2F7209529232083089594
:1000D00087B3807F87BB64E088E390E00E945B0089
:1000E00065E088E390E00E944F0066E088E390E0DE
:1000F0000E944F0083EC99E00197F1F700C00000E7
:1001000066E088E390E00E945B00B39915C093E03D
:100110009A95F1F7000066E088E390E00E944F00B6
:1001200083EC99E00197F1F700C0000066E088E3F6
:1001300090E00E945B00D9CF66E088E390E00E94E7
:100140004F0083EC99E00197F1F700C0000066E0F2
:1001500088E390E00E945B0064E088E390E00E9406
:100160005B0065E088E390E00E945B0087B38F67E7
:1001700087BB089588BB64E088E390E00E945B0041
:1001800065E088E390E00E945B0066E088E390E031
:100190000E944F0083EC99E00197F1F700C0000046
:1001A00066E088E390E00E945B000895CF93C82F3B
:1001B00082958F7088BB64E088E390E00E944F00D6
:1001C00065E088E390E00E945B0066E088E390E0F1
:1001D0000E944F0083EC99E00197F1F700C0000006
:1001E00066E088E390E00E945B00CF70C8BB64E0EB
:1001F00088E390E00E944F0065E088E390E00E9471
:100200005B0066E088E390E00E944F0083EC99E099
:100210000197F1F700C0000066E088E390E00E94DB
:100220005B0064E088E390E00E945B000E9468004D
:10023000CF910895CF93C82F82958F7088BB64E0CB
:1002400088E390E00E945B0065E088E390E00E9414
:100250005B0066E088E390E00E944F0083EC99E049
:100260000197F1F700C0000066E088E390E00E948B
:100270005B00CF70C8BB64E088E390E00E945B0045
:1002800065E088E390E00E945B0066E088E390E030
:100290000E944F0083EC99E00197F1F700C0000045
:1002A00066E088E390E00E945B000E946800CF91C6
:1002B0000895CF93DF93FC0103C00E94D600FE0196
:1002C000EF01219680818111F8CFDF91CF910895C0
:1002D0008FE787BB85EA9EE00197F1F700C0000039
:1002E00083E00E94BA0081EE94E00197F1F700C02C
:1002F000000083E00E94BA0091E29A95F1F70000B5
:1003000083E00E94BA0081E28A95F1F7000082E062
:100310000E94BA0091E29A95F1F7000088E20E94EB
:100320001A0188E00E941A0181E00E941A0180E807
:100330000E941A018CE00E941A010895CF93DF9366
:100340001F92CDB7DEB7898380EC0E941A018981A4
:1003500090E00E9459010F90DF91CF91089581B3F1
:10036000806281BB82B3806282BB08950F931F932A
:10037000CF93DF9300D000D01F92CDB7DEB78C01B2
:10038000FB0182B38F7D82BB83E991E10197F1F795
:1003900000C0000082B3806282BB81B38F7D81BBCD
:1003A00090E00CC000C09E5F9D3340F081B380623E
:1003B00081BB82B3806282BB80E07BC080B3382F78
:1003C000307285FDEFCF20E00BC000C02E5F2536D8
:1003D00038F091B3906291BB92B3906292BB69C0C6
:1003E00090B3892F807295FFF0CF80E00CC000C0E1
:1003F0008E5F853640F081B3806281BB82B38062BC
:1004000082BB832F56C08599F2CF60E024C0859BC4
:10041000FECFABE0AA95F1F700C0859B0CC047E08A
:1004200050E0481B510921E030E002C0220F331F89
:100430004A95E2F7922B8599FECF8F5F02C080E04C
:1004400090E0883020F3A1E0B0E0AC0FBD1FA60F14
:10045000B11D9C936F5F653090F381B3806281BB67
:1004600082B3806282BB29815A818B814C81922F19
:10047000950F980F940F3D8193131AC030E0322FDF
:100480002227252B90E0982F8827842B99233CF056
:100490006AE070E00E94A005D8016D937C93C901C9
:1004A0006AE070E00E94A0057183608381E001C072
:1004B00081E00F900F900F900F900F90DF91CF91F0
:1004C0001F910F91089521B3226021BB90BD89B97E
:1004D00088E98AB98EE880BD08951F920F920FB601
:1004E0000F9211242F933F934F935F936F937F93BA
:1004F0008F939F93AF93BF93EF93FF9381E00E94FD
:100500001A0182E00E941A018CB10E94D6008091EB
:100510007E00893539F481E090E090936600809305
:10052000650008C080917E008E3421F41092660030
:10053000109265008091650090916600892BB9F555
:1005400080917E008D3421F481E08093CC002FC017
:1005500080917E00843521F481E08093CD0027C016
:1005600080917E00873521F481E08093CE001FC00A
:1005700080917E008A3421F481E08093CF0017C0FF
:1005800080917E00863421F481E08093D0000FC0FA
:1005900080917E00833521F481E08093D10007C0F3
:1005A00080917E00843419F481E08093D200FF9121
:1005B000EF91BF91AF919F918F917F916F915F91DB
:1005C0004F913F912F910F900FBE0F901F90189554
:1005D0001F920F920FB60F9211242F933F938F9378
:1005E0009F9384B195B19093930080939200209152
:1005F0006300309164008217930741F09093640088
:100600008093630086B1806486B903C086B180643C
:1006100086B99F918F913F912F910F900FBE0F90B0
:100620001F901895E0919400F0E0E553FF4F808112
:10063000813009F080E00895789485E090E00E9490
:1006400063020E9468010E94AF0180EC84BB81B309
:10065000806481BB0E944900809165009091660092
:10066000892B09F492C0809160008F5F80936000B5
:10067000883C90F380E487B910BE85E986B986B1DD
:10068000806486B93699FECF64B175B170937D00F0
:1006900060937C0080E090E00E947C0420E030E0E9
:1006A00040E251E40E940F056B017C016091610002
:1006B0007091620080E090E00E947C049B01AC019C
:1006C000C701B6010E940A0420E030E040E251E494
:1006D0000E940A04609378007093790080937A00F6
:1006E00090937B0064E770E086E790E00E94B6019B
:1006F000882309F4B1CF2091760030917700C901A9
:1007000069E170E00E94A0058091C8009091C90045
:1007100068177907B1F0C901332314F481509F4F52
:10072000892F880F880B9093C8008093C9002032CE
:10073000334024F085B38F7985BB03C085B38066D1
:1007400085BB609178007091790080917A009091DA
:100750007B0020E030E040E450E40E940A0588235A
:1007600084F082B3806482BB9FEF29E688E19150D8
:1007700020408040E1F700C0000082B38F7B82BB45
:100780006BCF82B38F7B82BB67CF2AE02093800040
:1007900095E09093CA0081E0809394002093CB0071
:1007A0009093D8009DE09093D500ECECF0E010829F
:1007B0001182128213821482158286830E941A018A
:1007C0000E941203813009F047CF90918000809100
:1007D000CB00981341CF9091CA008091D800981314
:1007E0003BCF87E690E00E949E0182B38F7B82BB65
:1007F0009FE32CEA87E2915020408040E1F700C05F
:10080000000082B3806482BB809180008F5F809300
:10081000800022CF0E941E040C94D0040E94C904C0
:1008200058F00E94C20440F029F45F3F29F00C9474
:10083000B90451110C9404050C94BF040E94E10406
:1008400068F39923B1F3552391F3951B550BBB27FF
:10085000AA2762177307840738F09F5F5F4F220F44
:10086000331F441FAA1FA9F335D00E2E3AF0E0E83B
:1008700032D091505040E695001CCAF72BD0FE2F85
:1008800029D0660F771F881FBB1F26173707480719
:10089000AB07B0E809F0BB0B802DBF01FF279358D1
:1008A0005F4F3AF09E3F510578F00C94B9040C94D8
:1008B00004055F3FE4F3983ED4F3869577956795FA
:1008C000B795F7959F5FC9F7880F911D9695879506
:1008D00097F90895E1E0660F771F881FBB1F621725
:1008E00073078407BA0720F0621B730B840BBA0BE3
:1008F000EE1F88F7E0950895E89409C097FB3EF451
:1009000090958095709561957F4F8F4F9F4F99235C
:10091000A9F0F92F96E9BB279395F69587957795DA
:100920006795B795F111F8CFFAF4BB0F11F460FF9A
:100930001BC06F5F7F4F8F4F9F4F16C0882311F0F2
:1009400096E911C0772321F09EE8872F762F05C006
:10095000662371F096E8862F70E060E02AF09A95A1
:10096000660F771F881FDAF7880F9695879597F996
:10097000089597F99F6780E870E060E008959FEF21
:1009800080EC089500240A94161617061806090626
:10099000089500240A9412161306140605060895F5
:1009A000092E0394000C11F4882352F0BB0F40F47D
:1009B000BF2B11F460FF04C06F5F7F4F8F4F9F4FBD
:1009C000089557FD9058440F551F59F05F3F71F03F
:1009D0004795880F97FB991F61F09F3F79F08795A6
:1009E0000895121613061406551FF2CF4695F1DF2F
:1009F00008C0161617061806991FF1CF86957105BF
:100A0000610508940895E894BB2766277727CB01F2
:100A100097F908950E947C0508F48FEF08950E94CD
:100A200022050C94D0040E94C20438F00E94C9042C
:100A300020F0952311F00C94B9040C94BF041124F8
:100A40000C9404050E94E10470F3959FC1F3950F87
:100A500050E0551F629FF001729FBB27F00DB11D42
:100A6000639FAA27F00DB11DAA1F649F6627B00DD2
:100A7000A11D661F829F2227B00DA11D621F739FBB
:100A8000B00DA11D621F839FA00D611D221F749FC9
:100A90003327A00D611D231F849F600D211D822F10
:100AA000762F6A2F11249F5750409AF0F1F0882337
:100AB0004AF0EE0FFF1FBB1F661F771F881F915064
:100AC0005040A9F79E3F510580F00C94B9040C9456
:100AD00004055F3FE4F3983ED4F3869577956795D8
:100AE000B795F795E7959F5FC1F7FE2B880F911D8E
:100AF0009695879597F90895990F0008550FAA0BB9
:100B0000E0E8FEEF16161706E807F907C0F0121620
:100B10001306E407F50798F0621B730B840B950B23
:100B200039F40A2661F0232B242B252B21F4089578
:100B30000A2609F4A140A6958FEF811D811D089515
:100B400097FB072E16F4009407D077FD09D00E947A
:100B5000B40507FC05D03EF4909581959F4F08950C
:100B6000709561957F4F0895AA1BBB1B51E107C08B
:100B7000AA1FBB1FA617B70710F0A61BB70B881F2D
:100B8000991F5A95A9F780959095BC01CD010895BC
:040B9000F894FFCF07
:100B9400C8CC00FFFF01007761746572696E672E2F
:040BA4002E2E0000F1
:00000001FF
