:100000000C94A7000C94C4000C94C4000C94C4007D
:100010000C94C4000C94C4000C94C4000C94C40050
:100020000C94C4000C94C4000C94C4000C948A0377
:100030000C94C4000C94C4000C94C4000C94C40030
:100040000C94C4000C94C4000C94C4000C94C40020
:100050000C94C40000407A10F35A00A0724E1809A4
:100060000010A5D4E80000E87648170000E40B541F
:10007000020000CA9A3B000000E1F50500008096EE
:100080009800000040420F000000A0860100000020
:10009000102700000000E8030000000064000000DA
:1000A00000000A00000000000100000000002C76A3
:1000B000D888DC674F0823DFC1DFAE59E1B1B796BE
:1000C000E5E3E453C63AE651997696E8E6C284261B
:1000D000EB898C9B62ED407C6FFCEFBC9C9F40F2F7
:1000E000BAA56FA5F490055A2AF75C936B6CF96773
:1000F0006DC11BFCE0E40D47FEF520E6B500D0ED38
:10010000902E0300943577050080841E080000209F
:100110004E0A000000C80C333333330F986E12833D
:100120001141EF8D2114893BE65516CFFEE6DB1811
:10013000D1844B381BF77C1D901DA4BBE4242032D6
:1001400084725E228100C9F124ECA1E53D271124CF
:100150001FBECFE5D4E0DEBFCDBF10E0A0E6B0E02B
:10016000E6EAF5E102C005900D92A836B107D9F78D
:1001700020E0A8E6B0E001C01D92AF38B207E1F779
:100180000E94A5030C94D10A0C94000011B88DEFC5
:1001900080B984EA86BF089584EC86BF06B607FE60
:1001A000FDCF83B1089584E886BF06B607FEFDCF74
:1001B00083B1089584E986BF06B604FCFDCF089597
:1001C00083B984E886BF06B607FEFDCF81B1887F7C
:1001D000883211F081E0089580E0089594EA96BF96
:1001E00006B607FEFDCF91B1987F983011F090319F
:1001F00071F483B984E886BF06B607FEFDCF81B1EE
:10020000887F883131F0803431F480E0089581E0D6
:10021000089580E0089581E00895CF93DF93EC0185
:1002200080ED0E94EE0080E00E94E0000E94DA0073
:1002300081ED0E94EE000E94CC0088830E94CC00D9
:1002400089830E94CC008A830E94CC008B830E9409
:10025000CC008C830E94CC008D830E94D3008E83BF
:10026000DF91CF910895FC01408121E030E002C090
:10027000220F331F6A95E2F7242B20830895FC0197
:10028000908121E030E002C0220F331F6A95E2F72F
:1002900020952923208308958AB3807F8ABB64E058
:1002A0008BE390E00E943F0165E08BE390E00E94C9
:1002B000330166E08BE390E00E94330183EC99E028
:1002C0000197F1F700C0000066E08BE390E00E9428
:1002D0003F01CB9915C093E09A95F1F7000066E0D5
:1002E0008BE390E00E94330183EC99E00197F1F7F2
:1002F00000C0000066E08BE390E00E943F01D9CF90
:1003000066E08BE390E00E94330183EC99E0019773
:10031000F1F700C0000066E08BE390E00E943F012F
:1003200064E08BE390E00E943F0165E08BE390E0A6
:100330000E943F018AB38F678ABB08958BBB64E03C
:100340008BE390E00E943F0165E08BE390E00E9428
:100350003F0166E08BE390E00E94330183EC99E07B
:100360000197F1F700C0000066E08BE390E00E9487
:100370003F010895CF93C82F82958F708BBB64E0A7
:100380008BE390E00E94330165E08BE390E00E94F4
:100390003F0166E08BE390E00E94330183EC99E03B
:1003A0000197F1F700C0000066E08BE390E00E9447
:1003B0003F01CF70CBBB64E08BE390E00E94330140
:1003C00065E08BE390E00E943F0166E08BE390E004
:1003D0000E94330183EC99E00197F1F700C000001F
:1003E00066E08BE390E00E943F0164E08BE390E0E5
:1003F0000E943F010E944C01CF910895CF93C82FD6
:1004000082958F708BBB64E08BE390E00E943F018C
:1004100065E08BE390E00E943F0166E08BE390E0B3
:100420000E94330183EC99E00197F1F700C00000CE
:1004300066E08BE390E00E943F01CF70CBBB64E0AD
:100440008BE390E00E943F0165E08BE390E00E9427
:100450003F0166E08BE390E00E94330183EC99E07A
:100460000197F1F700C0000066E08BE390E00E9486
:100470003F010E944C01CF910895CF93DF93FC017F
:1004800003C00E94BA01FE01EF0121968081811113
:10049000F8CFDF91CF9108958FE78ABB85EA9EE080
:1004A0000197F1F700C0000083E00E949E0181EEF9
:1004B00094E00197F1F700C0000083E00E949E01E4
:1004C00091E29A95F1F7000083E00E949E0181E29B
:1004D0008A95F1F7000082E00E949E0191E29A95D0
:1004E000F1F7000088E20E94FE0188E00E94FE0110
:1004F00081E00E94FE0180E80E94FE018CE00E94E3
:10050000FE0108950F931F93CF93DF938C01EB01AE
:1005100081E00E94FE0182E00E94FE01C8010E946B
:100520003D0280EC0E94FE01CE010E943D02DF915F
:10053000CF911F910F9108950F931F93CF93DF9346
:10054000CDB7DEB767970FB6F894DEBF0FBECDBF4D
:100550001F923F931F924F9380E690E09F938F935B
:100560008E010F5F1F4F1F930F930E94A505B801C7
:1005700087E690E00E9482020FB6F894DEBF0FBEBD
:10058000CDBF67960FB6F894DEBF0FBECDBFDF912B
:10059000CF911F910F91089581B3806281BB82B387
:1005A000806282BB08950F931F93CF93DF9300D097
:1005B00000D01F92CDB7DEB78C01FB0182B38F7DD7
:1005C00082BB83E991E10197F1F700C0000082B39B
:1005D000806282BB81B38F7D81BB90E00CC000C084
:1005E0009E5F9D3340F081B3806281BB82B38062A5
:1005F00082BB80E07BC080B3382F307285FDEFCFA7
:1006000020E00BC000C02E5F253638F091B3906219
:1006100091BB92B3906292BB69C090B3892F8072F4
:1006200095FFF0CF80E00CC000C08E5F853640F0B3
:1006300081B3806281BB82B3806282BB832F56C04C
:100640008599F2CF60E024C0859BFECFABE0AA95F0
:10065000F1F700C0859B0CC047E050E0481B5109F2
:1006600021E030E002C0220F331F4A95E2F7922BBF
:100670008599FECF8F5F02C080E090E0883020F344
:10068000A1E0B0E0AC0FBD1FA60FB11D9C936F5F42
:10069000653090F381B3806281BB82B3806282BB9C
:1006A00029815A818B814C81922F950F980F940F3D
:1006B0003D8193131AC030E0322F2227252B90E082
:1006C000982F8827842B99233CF06AE070E00E94E1
:1006D0003805D8016D937C93C9016AE070E00E94EF
:1006E00038057183608381E001C081E00F900F9035
:1006F0000F900F900F90DF91CF911F910F91089560
:1007000021B3226021BB90BD89B988E98AB986E806
:1007100080BD08951F920F920FB60F9211248F93F0
:100720008CB180936800809168008D3419F488E062
:1007300088BB05C084E5809368008AE088BB8F9100
:100740000F900FBE0F901F901895CF93DF93CDB7EA
:10075000DEB72B970FB6F894DEBF0FBECDBF7894EF
:1007600085E090E00E9480031A8219821C821B821D
:100770000E944C020E94CC0281E087BB81B380645E
:1007800081BB0E94C6000F2EF8ECFF2EF02DCE018B
:1007900005960E940D012D813E814F815885698506
:1007A0007A858B850E949C0282E00E94FE01F39470
:1007B00027EC2F1560F7BE016D5F7F4FCE010196CC
:1007C0000E94D302882309F44BC0E981FA81CF014A
:1007D00069E170E00E943805CB0120918B003091D7
:1007E0008C0062177307D1F09F01FF2314F421508E
:1007F0003F4F232F220F220B30938B0020938C002E
:100800004AE06AE770E00E94800589819A8180321F
:10081000934014F018BA02C081E088BB2B813C8160
:10082000C90169E170E00E94380580918D009091C6
:100830008E006817790709F4AACFB901330F880B26
:10084000990B0E94AC042DEC3CEC4CEC51E40E9462
:10085000380409E610E022E042E00E94600597CFEC
:1008600081E00E94FE0186E690E00E943D028FCF6B
:100870000E944C040C94FE040E94F70458F00E945D
:10088000F00440F029F45F3F29F00C94E704511183
:100890000C9432050C94ED040E940F0568F3992323
:1008A000B1F3552391F3951B550BBB27AA2762176C
:1008B0007307840738F09F5F5F4F220F331F441F79
:1008C000AA1FA9F335D00E2E3AF0E0E832D09150AD
:1008D0005040E695001CCAF72BD0FE2F29D0660F9A
:1008E000771F881FBB1F261737074807AB07B0E8DD
:1008F00009F0BB0B802DBF01FF2793585F4F3AF0E3
:100900009E3F510578F00C94E7040C9432055F3F4C
:10091000E4F3983ED4F3869577956795B795F79568
:100920009F5FC9F7880F911D9695879597F9089550
:10093000E1E0660F771F881FBB1F621773078407EC
:10094000BA0720F0621B730B840BBA0BEE1F88F7FB
:10095000E0950895E89409C097FB3EF49095809542
:10096000709561957F4F8F4F9F4F9923A9F0F92F75
:1009700096E9BB279395F695879577956795B795F3
:10098000F111F8CFFAF4BB0F11F460FF1BC06F5FD9
:100990007F4F8F4F9F4F16C0882311F096E911C0EB
:1009A000772321F09EE8872F762F05C0662371F00C
:1009B00096E8862F70E060E02AF09A95660F771F20
:1009C000881FDAF7880F9695879597F9089597F914
:1009D0009F6780E870E060E008959FEF80EC0895E5
:1009E00000240A941616170618060906089500240E
:1009F0000A9412161306140605060895092E039488
:100A0000000C11F4882352F0BB0F40F4BF2B11F4FB
:100A100060FF04C06F5F7F4F8F4F9F4F089557FD5A
:100A20009058440F551F59F05F3F71F04795880F5C
:100A300097FB991F61F09F3F79F0879508951216F3
:100A400013061406551FF2CF4695F1DF08C016169F
:100A500017061806991FF1CF869571056105089450
:100A60000895E894BB2766277727CB0197F9089567
:100A700097FB072E16F4009407D077FD09D00E944B
:100A80004C0507FC05D03EF4909581959F4F089545
:100A9000709561957F4F0895AA1BBB1B51E107C05C
:100AA000AA1FBB1FA617B70710F0A61BB70B881FFE
:100AB000991F5A95A9F780959095BC01CD0108958D
:100AC000EF920F931F93CF93DF93E80147FD02C08E
:100AD00034E001C034E1042E000C550B57FF03C075
:100AE000519541955109E32E022F242FAE010E940A
:100AF000A807CE01DF91CF911F910F91EF9008953C
:100B0000BB274A3031F4992322F4BDE290958195B8
:100B10009F4F0C948C05BB27FB015527AA27880FF4
:100B2000991FAA1FA41710F0A41B83955051B9F761
:100B3000A05DAA3308F0A95DA193009779F7B111E0
:100B4000B1931192CB010C94F009AEE0B0E0EBEA66
:100B5000F5E00C94A80A0D891E8986E08C831A831F
:100B600009838FEF9FE79E838D83AE01475E5F4FC2
:100B70006F89788DCE0101960E94C705EF81F885B7
:100B8000E00FF11F10822E96E4E00C94C40AABE053
:100B9000B0E0EDECF5E00C949A0A6C017B018A015F
:100BA000FC0117821682838181FFCCC1CE010196A0
:100BB0003C01F6019381F70193FD859193FF8191AB
:100BC0007F01882309F4BAC1853239F493FD8591F8
:100BD00093FF81917F01853229F4B60190E00E9454
:100BE000000AE7CF912C212C312CFFE1F315D8F02E
:100BF0008B3279F038F4803279F08332A1F4232DEE
:100C000020611DC08D3261F0803369F4232D216095
:100C100016C0832D8260382EE32DE4603E2E2AC05C
:100C2000F32DF8601DC037FC2DC020ED280F2A30B1
:100C300040F08E32B9F436FC81C1232D2064322E6F
:100C400019C036FE06C08AE0989E200D1124922E0F
:100C500011C0EAE02E9E200D1124222EF32DF06209
:100C60003F2E08C08C3621F4832D8068382E02C0B8
:100C7000883641F4F70193FD859193FF81917F01BF
:100C80008111B3CF982F9F7D9554933028F40C5F3A
:100C90001F4F9FE399830DC0833631F0833771F086
:100CA000833509F059C021C0F801808189830E5F26
:100CB0001F4F88248394912C530113C02801F2E024
:100CC0004F0E511CF801A080B18036FE03C0692D83
:100CD00070E002C06FEF7FEFC5010E94E5094C0193
:100CE0008201F32DFF773F2E16C0280122E0420E2D
:100CF000511CF801A080B18036FE03C0692D70E060
:100D000002C06FEF7FEFC5010E94DA094C01F32D9D
:100D1000F0683F2E820133FC1BC0822D90E08816C4
:100D20009906B0F4B60180E290E00E94000A2A948D
:100D3000F4CFF50137FC859137FE81915F01B60153
:100D400090E00E94000A21102A9421E0821A910862
:100D50008114910471F7E8C0843611F0893641F5A9
:100D6000F80137FE07C060817181828193810C5F39
:100D70001F4F08C060817181072E000C880B990BF2
:100D80000E5F1F4FF32DFF763F2E97FF09C0909502
:100D90008095709561957F4F8F4F9F4FF0683F2EE4
:100DA0002AE030E0A3010E943C0A882E861845C044
:100DB000853731F4232D2F7EB22E2AE030E025C076
:100DC000932D997FB92E8F36C1F018F4883579F0BC
:100DD000B5C0803719F0883721F0B0C0E92FE06145
:100DE000BE2EB4FE0DC0FB2DF460BF2E09C034FE34
:100DF0000AC0292F2660B22E06C028E030E005C0C8
:100E000020E130E002C020E132E0F801B7FE07C087
:100E100060817181828193810C5F1F4F06C0608168
:100E2000718180E090E00E5F1F4FA3010E943C0A99
:100E3000882E8618FB2DFF773F2E36FE0DC0232D02
:100E40002E7FA22E891458F434FE0BC032FC09C048
:100E5000832D8E7EA82E05C0B82CA32C03C0B82CE1
:100E600001C0B92CA4FE0FC0FE01E80DF11D808168
:100E7000803321F49A2D997EA92E09C0A2FE06C0C6
:100E8000B394B39404C08A2D867809F0B394A3FC7C
:100E900011C0A0FE06C0B21488F4280C922C9B1836
:100EA0000EC0B21460F4B60180E290E00E94000A25
:100EB000B394F7CFB21418F42B1802C0982C212C3D
:100EC000A4FE10C0B60180E390E00E94000AA2FEDA
:100ED00017C0A1FC03C088E790E002C088E590E05D
:100EE000B6010CC08A2D867859F0A1FE02C08BE2B3
:100EF00001C080E2A7FC8DE2B60190E00E94000AEA
:100F0000891438F4B60180E390E00E94000A9A94B4
:100F1000F7CF8A94F301E80DF11D8081B60190E0CE
:100F20000E94000A8110F5CF222009F442CEB601BA
:100F300080E290E00E94000A2A94F6CFF6018681B2
:100F4000978102C08FEF9FEF2B96E2E10C94B60AD7
:100F5000A9E0B0E0EEEAF7E00C94A00A6A01122FD3
:100F6000B02E2BE3201720F0FF24F394F00E02C0E4
:100F70002CE3F22E0F2D27E0AE014F5F5F4F0E9452
:100F80000209BC014981842F8970813031F0E1FC74
:100F900006C0E0FE06C090E205C09DE203C09BE2F1
:100FA00001C090E05E2D507143FF3CC0911102C022
:100FB00083E001C084E0811718F4212F281B01C0B1
:100FC00020E051110BC0F601822F30E2882319F086
:100FD00031938150FBCFC20ED11C20E0992329F020
:100FE000D6019C93F60131966F01C6010396E2FE8D
:100FF0000AC03EE4D6013C9341E411964C9311970C
:1010000012963C9306C03EE6F601308341E64183EA
:101010003283FC01322F40E2332309F442C0419372
:101020003150FACF42FF44C0911102C083E001C0A9
:1010300084E0811718F4212F281B01C020E05111F2
:101040000BC0F601822F30E2882319F031938150D2
:10105000FBCFC20ED11C20E0992329F0D6019C932E
:10106000F60131966F01C6010396E2FE0BC039E42A
:10107000D6013C933EE411963C93119736E41296C8
:101080003C9307C039E6F60130833EE6318336E60D
:101090003283FC01322F40E2332319F04193315067
:1010A000FBCFFC01E20FF11D10828EEF9FEFA6C077
:1010B00021E030E0911102C020E030E01616170662
:1010C0001CF4FB01319602C0E1E0F0E02E0F3F1F5F
:1010D000BB2021F0EB2DF0E0319602C0E0E0F0E023
:1010E0002E0F3F1FE12FF0E02E173F071CF4121BBD
:1010F000212F01C020E08E2D887159F4F601822F36
:1011000030E2882319F031938150FBCFC20ED11CFD
:1011100020E0992329F0D6019C93F60131966F01C6
:1011200051110BC0F601822F90E3882319F091939F
:101130008150FBCFC20ED11C20E00F2D060F9A81EB
:10114000342F307144FF03C0913309F4015010165D
:1011500024F4093018F008E001C001E0AB0177FF8A
:1011600002C040E050E0FB01E41BF50BA1E0B0E061
:10117000AC0FBD1FEA0FFB1F8EE2A82E4B01801A99
:1011800091080B2D10E01195019511094F3FBFEF0C
:101190005B0721F4D601AC9211966D0164177507B7
:1011A0002CF08416950614F4818101C080E341502F
:1011B00051093196D60111967D014017510724F04F
:1011C000D6018C936701E2CF6417750739F4963323
:1011D00020F4953319F4311101C081E3F6018083C5
:1011E000F701822F90E2882319F091938150FBCF71
:1011F000F701E20FF11D108280E090E02996ECE00B
:101200000C94BC0A283008F027E03327DA01990F44
:10121000311D87FD916000966105710539F43260DA
:101220002E5F3D9330E32A95E1F708959F3F30F01C
:1012300080387105610509F03C5F3C5F3D9391305A
:1012400008F08068911DDF93CF931F930F93FF9257
:10125000EF92192F987F9695E92F96959695E90F1D
:10126000FF27E255FF4F99273327EE24FF24A701DC
:10127000E70105900894079428F4360FE71EF81E3E
:10128000491F511D660F771F881F991F0694A1F7EC
:101290000590079428F4E70EF81E491F561FC11D3C
:1012A000770F881F991F661F0694A1F70590079472
:1012B00028F4F80E491F561FC71FD11D880F991F0C
:1012C000661F771F0694A1F70590079420F4490F35
:1012D000561FC71FD81F990F661F771F881F0694B8
:1012E000A9F784911095177041F0D695C795579539
:1012F0004795F794E7941A95C1F7E4E5F0E0689410
:101300001590159135916591959105907FE27395B2
:10131000E118F10A430B560BC90BD009C0F7E10CD9
:10132000F11E431F561FC91FD01D7EF4703311F4E8
:101330008A95E6CFE894015030F0080F0AF40027B0
:10134000021708F4202F2395022F7A3328F079E32F
:101350007D932A95E9F710C07D932A9589F6069426
:1013600097956795379517951794E118F10A430BF0
:10137000560BC90BD00998F023957E9173957A335B
:1013800008F070E37C932013B8F77E9170617D9331
:1013900030F0839571E37D9370E32A95E1F7112492
:1013A000EF90FF900F911F91CF91DF91992787FDCB
:1013B00090950895FC010590615070400110D8F798
:1013C000809590958E0F9F1F0895FC01615070408D
:1013D00001900110D8F7809590958E0F9F1F08956A
:1013E000DC01FC01672F71917723E1F7329704C08C
:1013F0007C916D9370836291AE17BF07C8F3089517
:101400000F931F93CF93DF93FB01238121FD03C033
:101410008FEF9FEF2CC022FF16C046815781248199
:1014200035814217530744F4A081B1819D012F5F9C
:101430003F4F318320838C93268137812F5F3F4F2D
:101440003783268314C08B01EC01FB010084F185F6
:10145000E02D0995892BE1F6D80116968D919C9186
:101460001797019617969C938E931697CE01DF914E
:10147000CF911F910F910895FA01AA27283051F1B9
:10148000203181F1E8946F936E7F6E5F7F4F8F4FB5
:101490009F4FAF4FB1E03ED0B4E03CD0670F781F14
:1014A000891F9A1FA11D680F791F8A1F911DA11DF9
:1014B0006A0F711D811D911DA11D20D009F4689432
:1014C0003F912AE0269F11243019305D3193DEF6DA
:1014D000CF010895462F4770405D4193B3E00FD090
:1014E000C9F7F6CF462F4F70405D4A3318F0495D7B
:1014F00031FD4052419302D0A9F7EACFB4E0A6955E
:101500009795879577956795BA95C9F7009761057F
:10151000710508959B01AC010A2E069457954795D5
:1015200037952795BA95C9F7620F731F841F951FCA
:10153000A01D08952F923F924F925F926F927F92DB
:101540008F929F92AF92BF92CF92DF92EF92FF92D3
:101550000F931F93CF93DF93CDB7DEB7CA1BDB0B7F
:101560000FB6F894DEBF0FBECDBF09942A88398824
:1015700048885F846E847D848C849B84AA84B9842B
:10158000C884DF80EE80FD800C811B81AA81B98137
:10159000CE0FD11D0FB6F894DEBF0FBECDBFED014B
:0615A0000895F894FFCF4E
:0815A60025643A2564002000D1
:00000001FF
