:100000000C942A000C9447000C9447000C94470071
:100010000C9447000C9447000C9447000C94470044
:100020000C9447000C9447000C9447000C94470034
:100030000C9447000C9447000C9447000C94470024
:100040000C9447000C9447000C9447000C94470014
:100050000C94470011241FBECFE5D4E0DEBFCDBF16
:1000600010E0A0E6B0E0EEE1FBE002C005900D92EA
:10007000A838B107D9F720E0A8E8B0E001C01D9288
:10008000A83AB207E1F70E94D6010C948D050C94B2
:100090000000FC01408121E030E002C0220F331F4C
:1000A0006A95E2F7242B20830895FC01908121E0DA
:1000B00030E002C0220F331F6A95E2F72095292312
:1000C0002083089582BB64E082E390E00E945500A3
:1000D00065E082E390E00E94550066E082E390E0F4
:1000E0000E94490083EC99E00197F1F700C00000FD
:1000F00066E082E390E00E945500089581B3807F1E
:1001000081BB64E082E390E00E94550065E082E3F9
:1001100090E00E94490066E082E390E00E9449007E
:1001200083EC99E00197F1F700C0000066E082E3FC
:1001300090E00E945500839915C093E09A95F1F7DD
:10014000000066E082E390E00E94490083EC99E0C1
:100150000197F1F700C0000066E082E390E00E94A2
:100160005500D9CF66E082E390E00E94490083EC1D
:1001700099E00197F1F700C0000066E082E390E0AB
:100180000E94550064E082E390E00E94550065E023
:1001900082E390E00E94550081B38F6781BB089590
:1001A000CF93DF931F92CDB7DEB789838981829584
:1001B0008F7082BB64E082E390E00E94490065E0BA
:1001C00082E390E00E94550066E082E390E00E94A6
:1001D000490083EC99E00197F1F700C0000066E068
:1001E00082E390E00E94550089818F7082BB64E0B9
:1001F00082E390E00E94490065E082E390E00E9483
:10020000550066E082E390E00E94490083EC99E0AB
:100210000197F1F700C0000066E082E390E00E94E1
:10022000550064E082E390E00E9455000E947E0049
:100230000F90DF91CF910895CF93DF93FC0103C01E
:100240000E94D000FE01EF01219680818111F8CF3C
:10025000DF91CF910895CF93C82F82958F7082BB85
:1002600064E082E390E00E94550065E082E390E064
:100270000E94550066E082E390E00E94490083EC12
:1002800099E00197F1F700C0000066E082E390E09A
:100290000E945500CF70C2BB64E082E390E00E94F0
:1002A000550065E082E390E00E94550066E082E33D
:1002B00090E00E94490083EC99E00197F1F700C0BB
:1002C000000066E082E390E00E9455000E947E00FC
:1002D000CF9108950F931F93CF93DF938C01EB0180
:1002E00081E00E942B0180E80E942B01C8010E943E
:1002F0001C0180EC0E942B01CE010E941C01DF91A9
:10030000CF911F910F9108958FE781BB85EA9EE001
:100310000197F1F700C0000083E00E94620081EEC7
:1003200094E00197F1F700C0000083E00E946200B2
:1003300091E29A95F1F7000083E00E94620081E269
:100340008A95F1F7000082E00E94620091E29A959E
:10035000F1F7000088E20E942B0188E00E942B0147
:1003600081E00E942B0186E00E942B018CE00E941C
:100370002B01089580EA87BB83E58DB98FEF8ABB97
:100380008BBB089521E030E0A90102C0440F551F46
:100390008A95E2F7CA01242F20952BBB6FB9779B72
:1003A000FECF9BB3892B8BBB8FB108950E94840134
:1003B0000E94BA0114BA8FEF85BBE8E9F0E083E54B
:1003C00090E59183808389E490E0938382838EE03B
:1003D000E0E6F0E0A8E8B0E001900D928A95E1F740
:1003E00068E870E088E990E00E946A01989913C07B
:1003F00083ED90E30197F1F700C00000989BFECFDA
:1004000083ED90E30197F1F700C00000EE24E39440
:10041000F12C06E046C09A9917C083ED90E301974E
:10042000F1F700C000009A9BFECF83ED90E30197A7
:10043000F1F700C000006894EE24E1F80F2EF7E019
:10044000FF2EF02D06E02DC09C9913C083ED90E3A4
:100450000197F1F700C000009C9BFECF83ED90E375
:100460000197F1F700C00000EE24E394F12C07E0BF
:1004700018C09E99BBCF83ED90E30197F1F700C0C0
:1004800000009E9BFECF83ED90E30197F1F700C043
:1004900000006894EE24E1F80F2EF7E0FF2EF02D17
:1004A00007E06F2D802F0E94C2018FE493EC01972B
:1004B000F1F700C000001F921F938CE790E09F931C
:1004C0008F93C8E9D0E0DF93CF930E94A3026F2DF2
:1004D000802F0E94C201182F1F920F931F92EF923C
:1004E0008EE690E09F938F93DF93CF930E94A302B9
:1004F0008DEC189F812D1124869586958695282F41
:10050000220F922F990F990F920F212F291B1F92C3
:100510002F931F928F938FE790E09F938F9388E89C
:1005200090E09F938F930E94A30268E870E0CE0151
:100530000E946A018DB79EB746960FB6F8949EBF8B
:100540000FBE8DBF53CFAEE0B0E0E9EAF2E00C940D
:1005500064050D891E8986E08C831A8309838FEFD9
:100560009FE79E838D83AE01475E5F4F6F89788DD5
:10057000CE0101960E94C502EF81F885E00FF11FC0
:1005800010822E96E4E00C948005ABE0B0E0EBEC3A
:10059000F2E00C9456056C017B018A01FC01178284
:1005A0001682838181FFCCC1CE0101963C01F60108
:1005B0009381F70193FD859193FF81917F018823BA
:1005C00009F4BAC1853239F493FD859193FF819185
:1005D0007F01853229F4B60190E00E94BC04E7CF88
:1005E000912C212C312CFFE1F315D8F08B3279F0CE
:1005F00038F4803279F08332A1F4232D20611DC0BC
:100600008D3261F0803369F4232D216016C0832D73
:100610008260382EE32DE4603E2E2AC0F32DF86070
:100620001DC037FC2DC020ED280F2A3040F08E323F
:10063000B9F436FC81C1232D2064322E19C036FE58
:1006400006C08AE0989E200D1124922E11C0EAE087
:100650002E9E200D1124222EF32DF0623F2E08C075
:100660008C3621F4832D8068382E02C0883641F400
:10067000F70193FD859193FF81917F018111B3CFA4
:10068000982F9F7D9554933028F40C5F1F4F9FE364
:1006900099830DC0833631F0833771F0833509F0CB
:1006A00059C021C0F801808189830E5F1F4F8824C3
:1006B0008394912C530113C02801F2E04F0E511C7A
:1006C000F801A080B18036FE03C0692D70E002C041
:1006D0006FEF7FEFC5010E94B1044C018201F32D41
:1006E000FF773F2E16C0280122E0420E511CF80170
:1006F000A080B18036FE03C0692D70E002C06FEFAC
:100700007FEFC5010E94A6044C01F32DF0683F2E37
:10071000820133FC1BC0822D90E088169906B0F44C
:10072000B60180E290E00E94BC042A94F4CFF50167
:1007300037FC859137FE81915F01B60190E00E9400
:10074000BC0421102A9421E0821A9108811491049A
:1007500071F7E8C0843611F0893641F5F80137FEAB
:1007600007C060817181828193810C5F1F4F08C037
:1007700060817181072E000C880B990B0E5F1F4F53
:10078000F32DFF763F2E97FF09C0909580957095C9
:1007900061957F4F8F4F9F4FF0683F2E2AE030E0EA
:1007A000A3010E94F804882E861845C0853731F4CD
:1007B000232D2F7EB22E2AE030E025C0932D997F85
:1007C000B92E8F36C1F018F4883579F0B5C080376E
:1007D00019F0883721F0B0C0E92FE061BE2EB4FED9
:1007E0000DC0FB2DF460BF2E09C034FE0AC0292FB6
:1007F0002660B22E06C028E030E005C020E130E0DF
:1008000002C020E132E0F801B7FE07C060817181CB
:10081000828193810C5F1F4F06C06081718180E0EF
:1008200090E00E5F1F4FA3010E94F804882E8618E7
:10083000FB2DFF773F2E36FE0DC0232D2E7FA22EDF
:10084000891458F434FE0BC032FC09C0832D8E7E0F
:10085000A82E05C0B82CA32C03C0B82C01C0B92CFD
:10086000A4FE0FC0FE01E80DF11D8081803321F44C
:100870009A2D997EA92E09C0A2FE06C0B394B39406
:1008800004C08A2D867809F0B394A3FC11C0A0FEA1
:1008900006C0B21488F4280C922C9B180EC0B21417
:1008A00060F4B60180E290E00E94BC04B394F7CFFC
:1008B000B21418F42B1802C0982C212CA4FE10C0DE
:1008C000B60180E390E00E94BC04A2FE17C0A1FC28
:1008D00003C088E790E002C088E590E0B6010CC054
:1008E0008A2D867859F0A1FE02C08BE201C080E219
:1008F000A7FC8DE2B60190E00E94BC04891438F494
:10090000B60180E390E00E94BC049A94F7CF8A94E9
:10091000F301E80DF11D8081B60190E00E94BC0456
:100920008110F5CF222009F442CEB60180E290E09A
:100930000E94BC042A94F6CFF6018681978102C0FA
:100940008FEF9FEF2B96E2E10C947205FC0105906E
:10095000615070400110D8F7809590958E0F9F1FC1
:100960000895FC016150704001900110D8F7809506
:1009700090958E0F9F1F08950F931F93CF93DF9332
:10098000FB01238121FD03C08FEF9FEF2CC022FFCD
:1009900016C046815781248135814217530744F49C
:1009A000A081B1819D012F5F3F4F318320838C93C4
:1009B000268137812F5F3F4F3783268314C08B01F9
:1009C000EC01FB010084F185E02D0995892BE1F60E
:1009D000D80116968D919C911797019617969C9326
:1009E0008E931697CE01DF91CF911F910F910895AD
:1009F000FA01AA27283051F1203181F1E8946F9350
:100A00006E7F6E5F7F4F8F4F9F4FAF4FB1E03ED0F5
:100A1000B4E03CD0670F781F891F9A1FA11D680F93
:100A2000791F8A1F911DA11D6A0F711D811D911DC6
:100A3000A11D20D009F468943F912AE0269F11243B
:100A40003019305D3193DEF6CF010895462F47709F
:100A5000405D4193B3E00FD0C9F7F6CF462F4F70FA
:100A6000405D4A3318F0495D31FD4052419302D058
:100A7000A9F7EACFB4E0A6959795879577956795FE
:100A8000BA95C9F700976105710508959B01AC01FE
:100A90000A2E06945795479537952795BA95C9F725
:100AA000620F731F841F951FA01D08952F923F9200
:100AB0004F925F926F927F928F929F92AF92BF926E
:100AC000CF92DF92EF92FF920F931F93CF93DF931A
:100AD000CDB7DEB7CA1BDB0B0FB6F894DEBF0FBE77
:100AE000CDBF09942A88398848885F846E847D84C4
:100AF0008C849B84AA84B984C884DF80EE80FD80C6
:100B00000C811B81AA81B981CE0FD11D0FB6F8943B
:0E0B1000DEBF0FBECDBFED010895F894FFCFFC
:100B1E004269646972656363696F6E616C00232557
:100B2E006420202020536C6176653A2025640025D0
:080B3E00642E256420760000FE
:00000001FF
