:100000000C942A000C9434000C9434000C943400AA
:100010000C9434000C9434000C9434000C94340090
:100020000C9434000C9434000C9434000C94340080
:100030000C9434000C9434000C9434000C94340070
:100040000C9434000C9434000C9434000C94340060
:100050000C94340011241FBECFE5D4E0DEBFCDBF29
:100060000E9452000C9462000C94000080EA87BB4E
:1000700083E58DB98FEF8ABB8BBB089521E030E01B
:10008000A90102C0440F551F8A95E2F7CA01242F27
:1000900020952BBB6FB9779BFECF9BB3892B8BBB76
:1000A0008FB108950E94360014BA8FEF85BB9899DE
:1000B000FECF6EEF86E00E943E0060EF87E00E9478
:0800C0003E00F5CFF894FFCFDC
:00000001FF
