:100000000C942A000C9447000C9447000C94470071
:100010000C9447000C9447000C9447000C94470044
:100020000C9447000C9447000C9447000C94470034
:100030000C9447000C9447000C946E010C944700FC
:100040000C9447000C9447000C9447000C94470014
:100050000C94470011241FBECFE5D4E0DEBFCDBF16
:1000600010E0A0E6B0E0E2E8FAE002C005900D92F0
:10007000A037B107D9F720E0A0E7B0E001C01D929A
:10008000A539B207E1F70E941F020C943F050C94BA
:100090000000FC01408121E030E002C0220F331F4C
:1000A0006A95E2F7242B20830895FC01908121E0DA
:1000B00030E002C0220F331F6A95E2F72095292312
:1000C0002083089585BB64E085E390E00E9455009D
:1000D00065E085E390E00E94550066E085E390E0EE
:1000E0000E94490083EC99E00197F1F700C00000FD
:1000F00066E085E390E00E945500089584B3807F18
:1001000084BB64E085E390E00E94550065E085E3F0
:1001100090E00E94490066E085E390E00E9449007B
:1001200083EC99E00197F1F700C0000066E085E3F9
:1001300090E00E9455009B9915C093E09A95F1F7C5
:10014000000066E085E390E00E94490083EC99E0BE
:100150000197F1F700C0000066E085E390E00E949F
:100160005500D9CF66E085E390E00E94490083EC1A
:1001700099E00197F1F700C0000066E085E390E0A8
:100180000E94550064E085E390E00E94550065E020
:1001900085E390E00E94550084B38F6784BB089587
:1001A000CF93C82F82958F7085BB64E085E390E084
:1001B0000E94490065E085E390E00E94550066E0FA
:1001C00085E390E00E94490083EC99E00197F1F704
:1001D00000C0000066E085E390E00E945500CF700B
:1001E000C5BB64E085E390E00E94490065E085E3DB
:1001F00090E00E94550066E085E390E00E9449008F
:1002000083EC99E00197F1F700C0000066E085E318
:1002100090E00E94550064E085E390E00E94550064
:100220000E947E00CF910895CF93DF93FC0103C01D
:100230000E94D000FE01EF01219680818111F8CF4C
:10024000DF91CF910895CF93C82F82958F7085BB92
:1002500064E085E390E00E94550065E085E390E06E
:100260000E94550066E085E390E00E94490083EC1F
:1002700099E00197F1F700C0000066E085E390E0A7
:100280000E945500CF70C5BB64E085E390E00E94FA
:10029000550065E085E390E00E94550066E085E347
:1002A00090E00E94490083EC99E00197F1F700C0CB
:1002B000000066E085E390E00E9455000E947E0009
:1002C000CF910895CF93DF93EC0180EC0E9423013E
:1002D000CE010E941401DF91CF9108951F920F92D9
:1002E0000FB60F9211242F933F934F935F936F9309
:1002F0007F938F939F93AF93BF93EF93FF9324B11B
:1003000035B130937200209371008091620090911A
:1003100063002817390779F1309363002093620056
:100320006091600070916100C901880F991F220FD0
:10033000331F220F331F220F331F820F931F0E9480
:1003400041027F936F9384E690E09F938F9383E7BE
:1003500090E09F938F930E94550283E790E00E9464
:10036000620186B1806486B90F900F900F900F9054
:100370000F900F9003C086B1806486B9FF91EF9112
:10038000BF91AF919F918F917F916F915F914F91AD
:100390003F912F910F900FBE0F901F9018950F93C4
:1003A0001F93CF93DF938C01EB0181E00E94230127
:1003B00082E00E942301C8010E94140180EC0E9487
:1003C0002301CE010E941401DF91CF911F910F9163
:1003D00008958FE784BB85EA9EE00197F1F700C09E
:1003E000000083E00E94620081EE94E00197F1F743
:1003F00000C0000083E00E94620091E29A95F1F74C
:10040000000083E00E94620081E28A95F1F700001B
:1004100082E00E94620091E29A95F1F7000088E282
:100420000E94230188E00E94230181E00E942301B1
:1004300086E00E9423018CE00E94230108950E941F
:10044000E9018091700081110FC088E0E7E6F0E0DB
:10045000A4E8B0E001900D928A95E1F763E770E0BF
:1004600084E890E00E94CF0111BA87E487B910BEFA
:100470008DE986B91ABA1BBA789486B1806486B9B8
:10048000FFCFAA1BBB1B51E107C0AA1FBB1FA617AA
:10049000B70710F0A61BB70B881F991F5A95A9F72D
:1004A00080959095BC01CD010895AEE0B0E0EBE5FC
:1004B000F2E00C9416050D891E8986E08C831A8360
:1004C00009838FEF9FE79E838D83AE01475E5F4F69
:1004D0006F89788DCE0101960E947702EF81F885B1
:1004E000E00FF11F10822E96E4E00C943205ABE091
:1004F000B0E0EDE7F2E00C9408056C017B018A01A5
:10050000FC0117821682838181FFCCC1CE01019646
:100510003C01F6019381F70193FD859193FF819151
:100520007F01882309F4BAC1853239F493FD85919E
:1005300093FF81917F01853229F4B60190E00E94FA
:100540006E04E7CF912C212C312CFFE1F315D8F06C
:100550008B3279F038F4803279F08332A1F4232D94
:1005600020611DC08D3261F0803369F4232D21603C
:1005700016C0832D8260382EE32DE4603E2E2AC003
:10058000F32DF8601DC037FC2DC020ED280F2A3058
:1005900040F08E32B9F436FC81C1232D2064322E16
:1005A00019C036FE06C08AE0989E200D1124922EB6
:1005B00011C0EAE02E9E200D1124222EF32DF062B0
:1005C0003F2E08C08C3621F4832D8068382E02C05F
:1005D000883641F4F70193FD859193FF81917F0166
:1005E0008111B3CF982F9F7D9554933028F40C5FE1
:1005F0001F4F9FE399830DC0833631F0833771F02D
:10060000833509F059C021C0F801808189830E5FCC
:100610001F4F88248394912C530113C02801F2E0CA
:100620004F0E511CF801A080B18036FE03C0692D29
:1006300070E002C06FEF7FEFC5010E9463044C01C0
:100640008201F32DFF773F2E16C0280122E0420ED3
:10065000511CF801A080B18036FE03C0692D70E006
:1006600002C06FEF7FEFC5010E9458044C01F32DCB
:10067000F0683F2E820133FC1BC0822D90E088166B
:100680009906B0F4B60180E290E00E946E042A94CC
:10069000F4CFF50137FC859137FE81915F01B601FA
:1006A00090E00E946E0421102A9421E0821A9108A1
:1006B0008114910471F7E8C0843611F0893641F550
:1006C000F80137FE07C060817181828193810C5FE0
:1006D0001F4F08C060817181072E000C880B990B99
:1006E0000E5F1F4FF32DFF763F2E97FF09C09095A9
:1006F0008095709561957F4F8F4F9F4FF0683F2E8B
:100700002AE030E0A3010E94AA04882E861845C082
:10071000853731F4232D2F7EB22E2AE030E025C01C
:10072000932D997FB92E8F36C1F018F4883579F062
:10073000B5C0803719F0883721F0B0C0E92FE061EB
:10074000BE2EB4FE0DC0FB2DF460BF2E09C034FEDA
:100750000AC0292F2660B22E06C028E030E005C06E
:1007600020E130E002C020E132E0F801B7FE07C02E
:1007700060817181828193810C5F1F4F06C060810F
:10078000718180E090E00E5F1F4FA3010E94AA04D8
:10079000882E8618FB2DFF773F2E36FE0DC0232DA9
:1007A0002E7FA22E891458F434FE0BC032FC09C0EF
:1007B000832D8E7EA82E05C0B82CA32C03C0B82C88
:1007C00001C0B92CA4FE0FC0FE01E80DF11D80810F
:1007D000803321F49A2D997EA92E09C0A2FE06C06D
:1007E000B394B39404C08A2D867809F0B394A3FC23
:1007F00011C0A0FE06C0B21488F4280C922C9B18DD
:100800000EC0B21460F4B60180E290E00E946E0463
:10081000B394F7CFB21418F42B1802C0982C212CE3
:10082000A4FE10C0B60180E390E00E946E04A2FE18
:1008300017C0A1FC03C088E790E002C088E590E003
:10084000B6010CC08A2D867859F0A1FE02C08BE259
:1008500001C080E2A7FC8DE2B60190E00E946E0428
:10086000891438F4B60180E390E00E946E049A94F3
:10087000F7CF8A94F301E80DF11D8081B60190E075
:100880000E946E048110F5CF222009F442CEB601F9
:1008900080E290E00E946E042A94F6CFF6018681F1
:1008A000978102C08FEF9FEF2B96E2E10C94240515
:1008B000FC010590615070400110D8F7809590952B
:1008C0008E0F9F1F0895FC01615070400190011030
:1008D000D8F7809590958E0F9F1F08950F931F93C3
:1008E000CF93DF93FB01238121FD03C08FEF9FEFA7
:1008F0002CC022FF16C046815781248135814217C2
:10090000530744F4A081B1819D012F5F3F4F318394
:1009100020838C93268137812F5F3F4F3783268337
:1009200014C08B01EC01FB010084F185E02D0995D9
:10093000892BE1F6D80116968D919C911797019617
:1009400017969C938E931697CE01DF91CF911F91AE
:100950000F910895FA01AA27283051F1203181F131
:10096000E8946F936E7F6E5F7F4F8F4F9F4FAF4FB7
:10097000B1E03ED0B4E03CD0670F781F891F9A1FCA
:10098000A11D680F791F8A1F911DA11D6A0F711D7E
:10099000811D911DA11D20D009F468943F912AE08A
:1009A000269F11243019305D3193DEF6CF01089572
:1009B000462F4770405D4193B3E00FD0C9F7F6CFA3
:1009C000462F4F70405D4A3318F0495D31FD40526B
:1009D000419302D0A9F7EACFB4E0A6959795879501
:1009E00077956795BA95C9F70097610571050895E0
:1009F0009B01AC010A2E069457954795379527958C
:100A0000BA95C9F7620F731F841F951FA01D089523
:100A10002F923F924F925F926F927F928F929F920E
:100A2000AF92BF92CF92DF92EF92FF920F931F93FC
:100A3000CF93DF93CDB7DEB7CA1BDB0B0FB6F894AD
:100A4000DEBF0FBECDBF09942A88398848885F84ED
:100A50006E847D848C849B84AA84B984C884DF805E
:100A6000EE80FD800C811B81AA81B981CE0FD11D42
:100A70000FB6F894DEBF0FBECDBFED010895F89418
:020A8000FFCFA6
:100A8200CC00FFFF256400566F6C74616A6500003C
:00000001FF
