:020000020000FC
:100000000C942A000C9465000C9466000C94670014
:100010000C9468000C9469000C946A000C946B00BA
:100020000C946C000C946D000C946E000C946F009A
:100030000C9470000C9471000C9472000C9473007A
:100040000C9474000C9475000C9476000C9477005A
:100050000C94790004E00EBF0FE50DBF789400E02A
:100060000ABB0FEF0BBB00E007BB0FEF08BB0FEFA6
:1000700004BB00E005BB03E008BF00E002BF0CE7E3
:100080000CBF02E009BFB09B01C0FDCF13D0B09BF5
:10009000FECF10D030E0C89BFECFC899FECF0BE05A
:1000A00003BFC89BFECFC899FECF08E003BF01D0B5
:1000B000EACF0895F5EAE9ECEA95F1F7FA95D9F770
:1000C000F3E0FA95F1F70000089518951895189542
:1000D00018951895189518951895189518951895B8
:1000E000189518951895189518951895189533958D
:0400F00018951895B2
:00000001FF
