:020000020000FC
:100000000C942A000C945E000C945F000C94600029
:100010000C9461000C9462000C9463000C946400D6
:100020000C9465000C9466000C9467000C946800B6
:100030000C9469000C946A000C946B000C946C0096
:100040000C946D000C946E000C946F000C94700076
:100050000C94780004E00EBF0FE50DBF789400E02B
:100060000ABB0FEF0BBB0FEF04BB00E005BB0FEFAC
:1000700001BB00E002BB00E002BF0BE90CBF03E0E4
:1000800008BF02E009BF1127332744275527C89B23
:1000900003D0CF9BE4CFFBCF0CE003BF04D0C89BC1
:1000A000FECF01D0F4CFD5EAE9ECEA95F1F7DA9585
:1000B000D9F7D3E0DA95F1F700000895189518956F
:1000C00018951895189518951895189518951895C8
:1000D00018951895189518951895189518951895B8
:1000E0000FB70F931395143621F00F910FBF18958A
:1000F000189523952B3321F0422F0DC042BBF5CF2D
:1001000020E03395353021F022BB35BB10E0EDCF38
:1001100008E003BFF1CF4A3018F45295452BEECFDB
:060120004A505395F8CF90
:00000001FF
