:020000020000FC
:100000000C942A000C945A000C945B000C945C0035
:100010000C945D000C945E000C945F000C946000E6
:100020000C9461000C9462000C9463000C946400C6
:100030000C9465000C9466000C9467000C946800A6
:100040000C9469000C946A000C946B000C946C0086
:100050000C94740004E00EBF0FE50DBF789400E02F
:100060000ABB0FEF0BBB0FEF04BB00E005BB0FEFAC
:1000700001BB00E002BB00E002BF0BE90CBF03E0E4
:1000800008BF02E009BFC89B03D0CF9BE8CFFBCFDE
:100090000CE003BF04D0C89BFECF01D0F4CFD5EA5B
:1000A000E9ECEA95F1F7DA95D9F7D3E0DA95F1F7CB
:1000B0000000089518951895189518951895189595
:1000C00018951895189518951895189518951895C8
:1000D00018951895189518950FB70F931395143612
:1000E00004C00F910FBF1895189523952B3302C0AC
:1000F00022BBF7CF20E03395343004C022BB35BBA0
:0A01000010E0EFCF08E003BFF3CFDB
:00000001FF
