S01A000050325F49415F476F6D657A44656C6761646F2E737265638E
S11300000C942A000C9447000C9447000C9447006D
S11300100C9447000C9447000C9447000C94470040
S11300200C9447000C9447000C9447000C94E7038D
S11300300C9447000C9447000C945A020C9447000B
S11300400C9447000C9447000C9447000C94470010
S11300500C94470011241FBECFE5D4E0DEBFCDBF12
S113006010E0A0E6B0E0E0E6F3E102C005900D92F6
S1130070A03BB107D9F720E0A0EBB0E001C01D928E
S1130080AE3EB207E1F70E9449050C94AE090C9408
S113009000002FE738E391E0215030409040E1F731
S11300A000C0000023B330E0082E02C03595279528
S11300B00A94E2F720FFF6CF2FE738E381E02150DE
S11300C030408040E1F700C000000895CF93809154
S11300D0B3008F5F8093B3008EEF85BB00000000F8
S11300E09C9905C084E00E944900CFE076C083B3A8
S11300F0C82FC07285FD04C085E00E9449006DC010
S11301009E9905C086E00E944900CEE066C09F9992
S113011005C087E00E944900CDE05FC08DEF85BB3C
S1130120000000009C9905C084E00E944900C1E0E1
S113013054C09D9905C085E00E944900C2E04DC0AD
S11301409E9905C086E00E944900C3E046C09F997D
S113015005C087E00E944900CCE03FC08BEF85BB1F
S1130160000000009C9905C084E00E944900C4E09E
S113017034C09D9905C085E00E944900C5E02DC0AA
S11301809E9905C086E00E944900C6E026C09F995A
S113019005C087E00E944900CBE01FC087EF85BB04
S11301A0000000009C9905C084E00E944900C7E05B
S11301B014C09D9905C085E00E944900C8E00DC0A7
S11301C09E9905C086E00E944900C9E006C09F9937
S11301D07ECF87E00E944900CAE08C2FCF9108951A
S11301E087E687B980E480BF8EEF86B91ABA1BBA56
S11301F00895E199FECF9FBB8EBB6DBBF8948CB381
S113020084608CBB8CB382608CBB78940895E19934
S1130210FECF9FBB8EBB8CB381608CBB8DB3089526
S1130220FC01408121E030E002C0220F331F6A95B7
S1130230E2F7242B20830895FC01908121E030E033
S113024002C0220F331F6A95E2F7209529232083E9
S1130250089588BB64E070E088E390E00E941C018C
S113026065E070E088E390E00E941C0166E070E0C5
S113027088E390E00E9410018FE19EE40197F1F77A
S113028000C0000066E070E088E390E00E941C017A
S1130290089587B3807F87BB64E070E088E390E0D3
S11302A00E941C0165E070E088E390E00E94100168
S11302B066E070E088E390E00E9410018FE19EE424
S11302C00197F1F700C0000066E070E088E390E079
S11302D00E941C01B39917C09AE19A95F1F700C0E6
S11302E066E070E088E390E00E9410018FE19EE4F4
S11302F00197F1F700C0000066E070E088E390E049
S11303000E941C01D5CF66E070E088E390E00E9473
S113031010018FE19EE40197F1F700C0000066E050
S113032070E088E390E00E941C0164E070E088E3E0
S113033090E00E941C0165E070E088E390E00E9478
S11303401C0187B38F6787BB0895CF93C82F82950D
S11303508F7088BB64E070E088E390E00E94100135
S113036065E070E088E390E00E941C0166E070E0C4
S113037088E390E00E9410018FE19EE40197F1F779
S113038000C0000066E070E088E390E00E941C0179
S1130390CF70C8BB64E070E088E390E00E94100175
S11303A065E070E088E390E00E941C0166E070E084
S11303B088E390E00E9410018FE19EE40197F1F739
S11303C000C0000066E070E088E390E00E941C0139
S11303D064E070E088E390E00E941C010E944901FF
S11303E0CF910895CF93DF93FC0104C090E00E9465
S11303F0A501FE01EF01219680818111F7CFDF91E4
S1130400CF910895CF93C82F82958F7088BB64E0F5
S113041070E088E390E00E941C0165E070E088E3EE
S113042090E00E941C0166E070E088E390E00E9486
S113043010018FE19EE40197F1F700C0000066E02F
S113044070E088E390E00E941C01CF70C8BB64E0B8
S113045070E088E390E00E941C0165E070E088E3AE
S113046090E00E941C0166E070E088E390E00E9446
S113047010018FE19EE40197F1F700C0000066E0EF
S113048070E088E390E00E941C010E944901CF9132
S11304900895CF93DF93EC0181E090E00E94020283
S11304A082E090E00E940202CE010E94F201DF91FC
S11304B0CF9108951F920F920FB60F9211242F938C
S11304C03F934F935F936F937F938F939F93AF93D8
S11304D0BF93EF93FF9365B170E080E090E00E94DA
S11304E00D0620E030E04CE452E40E946505609380
S11304F0E9007093EA008093EB009093EC00609124
S1130500E9007091EA008091EB009091EC0020E00A
S113051030E0A9010E94BF06882384F46091E900B9
S11305207091EA008091EB009091EC0020E030E0C3
S113053040E85FE30E946005882324F481E080930F
S1130540ED008FC06091E9007091EA008091EB00AA
S11305509091EC0020E030E040E85FE30E94BF06A9
S1130560882384F46091E9007091EA008091EB00A3
S11305709091EC0020E030E040E050E40E946005FF
S1130580882324F482E08093ED006BC06091E9003D
S11305907091EA008091EB009091EC0020E030E053
S11305A040E050E40E94BF06882384F46091E9008F
S11305B07091EA008091EB009091EC0020E030E033
S11305C040E450E40E946005882324F483E080938F
S11305D0ED0047C06091E9007091EA008091EB0062
S11305E09091EC0020E030E040E450E40E94BF062B
S11305F0882384F46091E9007091EA008091EB0013
S11306009091EC0020E030E040E850E40E94600566
S1130610882324F484E08093ED0023C06091E900F2
S11306207091EA008091EB009091EC0020E030E0C2
S113063040E850E40E94BF06882384F46091E900F6
S11306407091EA008091EB009091EC0020E030E0A2
S113065040EA50E40E94600588231CF485E08093FE
S1130660ED006091E9007091EA008091EB009091B7
S1130670EC000E94D7056093B10081E090E00E94F5
S113068002026091E9007091EA008091EB00909180
S1130690EC000E94D7057F936F9383E690E09F93CD
S11306A08F9387EC90E09F938F930E94C40687EC0E
S11306B090E00E9449020F900F900F900F900F90BE
S11306C00F90FF91EF91BF91AF919F918F917F9187
S11306D06F915F914F913F912F910F900FBE0F90AB
S11306E01F9018950F931F93CF93DF938C01EB0109
S11306F081E090E00E94020282E090E00E94020207
S1130700C8010E94F20180EC90E00E940202CE0136
S11307100E94F201DF91CF911F910F9108958FE70D
S113072087BB8FE295E70197F1F700C0000083E0F3
S113073090E00E9429018FE097E20197F1F700C051
S1130740000083E090E00E94290187EC90E001978B
S1130750F1F700C0000083E090E00E94290187ECDB
S113076090E00197F1F700C0000082E090E00E9461
S1130770290187EC90E00197F1F700C0000088E2BE
S113078090E00E94020288E090E00E94020281E070
S113079090E00E94020286E090E00E9402028CE057
S11307A090E00E940202089521B3226021BB90BD13
S11307B089B988E98AB986E880BD08955D9BFECF32
S11307C08CB908958FE084BB8FEF85BB08951F9289
S11307D00F920FB60F9211240F931F932F933F93F1
S11307E04F935F936F937F938F939F93AF93BF9335
S11307F0CF93DF93EF93FF9380916200813081F474
S11308008CB18093B0008091B000833409F02CC186
S11308100E94F000809162008F5F8093620024C187
S11308208CB18093B0008091B000803308F41CC177
S11308308091B0008A3308F017C18091B40081110F
S113084003C081E00E940202C091B400C530F0F5FB
S1130850D0E06091E9007091EA008091EB00909102
S1130860EC000E94D705C617D707F4F48091B000B6
S113087090E0C0979F938F9382E790E09F938F932C
S113088087EC90E09F938F930E94C4068091600050
S11308900E94020287EC90E00E94F2010F900F90F8
S11308A00F900F900F900F906091B0006053809163
S11308B0B40090E00E94F9008091B4008F5F8093AF
S11308C0B400809160008F5F80936000C091B40099
S11308D0D0E06091E9007091EA008091EB00909182
S11308E0EC000E94D705C617D70709F0BDC0609178
S11308F0E9007091EA008091EB009091EC000E9475
S1130900D705EB0105C060E4CE010E94F9002196F1
S1130910C630D105C4F3F89488E50E94DE0381E073
S11309200E9402028BE0E5E7F0E0A7ECB0E0019062
S11309300D928A95E1F78EE0E0E8F0E0A5EBB0E0F7
S113094001900D928A95E1F765EB70E087EC90E0F9
S11309500E9472032FEF89E698E121508040904075
S1130960E1F700C0000081E00E9402028BE0EEE8A3
S1130970F0E0A7ECB0E001900D928A95E1F787ECE6
S113098090E00E94F20181E00E940202D0E8C0E0FF
S11309900E9466008093C6008C2F90E00E9407019D
S11309A09091C6008913F4CFCF5F1F929F9382E783
S11309B090E09F938F9385EB90E09F938F930E9499
S11309C0C4068D2F0E94020285EB90E00E94F20182
S11309D0DF5F0C2F10E06091E9007091EA008091D4
S11309E0EB009091EC000E94D7050F900F900F90B0
S11309F00F900F900F900617170751F681E00E9491
S1130A00020289E990E00E94F20181E08093620091
S1130A101092B4001092B3008CEC80936100109299
S1130A20B2001092E9001092EA001092EB001092CA
S1130A30EC001092B10080E880936000789483E326
S1130A4090E00E94D4030E94E2030E948F038CE092
S1130A50E3EAF0E0A7ECB0E001900D928A95E1F7AB
S1130A6087EC90E00E944902FF91EF91DF91CF91D2
S1130A70BF91AF919F918F917F916F915F914F91B2
S1130A803F912F911F910F910F900FBE0F901F90C8
S1130A901895789483E390E00E94D4030E94E203C3
S1130AA00E948F038CE0E3EAF0E0A7ECB0E0019051
S1130AB00D928A95E1F787EC90E00E944902FFCFFE
S1130AC00E944A0608F481E008950E9479050C9476
S1130AD085060E947E0658F00E94770640F029F4AD
S1130AE05F3F29F00C946E0651110C94B9060C94D6
S1130AF074060E94960668F39923B1F3552391F383
S1130B00951B550BBB27AA2762177307840738F078
S1130B109F5F5F4F220F331F441FAA1FA9F335D0D5
S1130B200E2E3AF0E0E832D091505040E695001C89
S1130B30CAF72BD0FE2F29D0660F771F881FBB1F43
S1130B40261737074807AB07B0E809F0BB0B802D21
S1130B50BF01FF2793585F4F3AF09E3F510578F04D
S1130B600C946E060C94B9065F3FE4F3983ED4F3FC
S1130B70869577956795B795F7959F5FC9F7880F21
S1130B80911D9695879597F90895E1E0660F771F73
S1130B90881FBB1F621773078407BA0720F0621B04
S1130BA0730B840BBA0BEE1F88F7E09508950E942F
S1130BB0DE056894B1110C94B90608950E949E064E
S1130BC088F09F5798F0B92F9927B751B0F0E1F00A
S1130BD0660F771F881F991F1AF0BA95C9F714C0BA
S1130BE0B13091F00E94B806B1E008950C94B806B3
S1130BF0672F782F8827B85F39F0B93FCCF38695F3
S1130C0077956795B395D9F73EF49095809570954F
S1130C1061957F4F8F4F9F4F0895E89409C097FBCC
S1130C203EF490958095709561957F4F8F4F9F4FBF
S1130C309923A9F0F92F96E9BB279395F695879503
S1130C4077956795B795F111F8CFFAF4BB0F11F4C6
S1130C5060FF1BC06F5F7F4F8F4F9F4F16C088236D
S1130C6011F096E911C0772321F09EE8872F762FA3
S1130C7005C0662371F096E8862F70E060E02AF0E4
S1130C809A95660F771F881FDAF7880F96958795D0
S1130C9097F90895990F0008550FAA0BE0E8FEEFA5
S1130CA016161706E807F907C0F012161306E4072C
S1130CB0F50798F0621B730B840B950B39F40A2625
S1130CC061F0232B242B252B21F408950A2609F403
S1130CD0A140A6958FEF811D811D089597F99F6707
S1130CE080E870E060E008959FEF80EC08950024B0
S1130CF00A941616170618060906089500240A947D
S1130D0012161306140605060895092E0394000C02
S1130D1011F4882352F0BB0F40F4BF2B11F460FF91
S1130D2004C06F5F7F4F8F4F9F4F089557FD9058BA
S1130D30440F551F59F05F3F71F04795880F97FB9B
S1130D40991F61F09F3F79F0879508951216130655
S1130D501406551FF2CF4695F1DF08C01616170684
S1130D601806991FF1CF86957105610508940895B9
S1130D70E894BB2766277727CB0197F908950E944B
S1130D804A0608F48FEF0895AEE0B0E0EAECF6E02E
S1130D900C9485090D891E8986E08C831A83098346
S1130DA08FEF9FE79E838D83AE01475E5F4F6F8910
S1130DB0788DCE0101960E94E606EF81F885E00F5A
S1130DC0F11F10822E96E4E00C94A109ABE0B0E090
S1130DD0ECEEF6E00C9477096C017B018A01FC01CE
S1130DE017821682838181FFCCC1CE0101963C011A
S1130DF0F6019381F70193FD859193FF81917F0122
S1130E00882309F4BAC1853239F493FD859193FF9F
S1130E1081917F01853229F4B60190E00E94DD08BA
S1130E20E7CF912C212C312CFFE1F315D8F08B3234
S1130E3079F038F4803279F08332A1F4232D2061E3
S1130E401DC08D3261F0803369F4232D216016C0FA
S1130E50832D8260382EE32DE4603E2E2AC0F32DCC
S1130E60F8601DC037FC2DC020ED280F2A3040F05B
S1130E708E32B9F436FC81C1232D2064322E19C080
S1130E8036FE06C08AE0989E200D1124922E11C0D1
S1130E90EAE02E9E200D1124222EF32DF0623F2E27
S1130EA008C08C3621F4832D8068382E02C0883621
S1130EB041F4F70193FD859193FF81917F018111A5
S1130EC0B3CF982F9F7D9554933028F40C5F1F4F18
S1130ED09FE399830DC0833631F0833771F08335F6
S1130EE009F059C021C0F801808189830E5F1F4F2A
S1130EF088248394912C530113C02801F2E04F0EEF
S1130F00511CF801A080B18036FE03C0692D70E049
S1130F1002C06FEF7FEFC5010E94D2084C0182012D
S1130F20F32DFF773F2E16C0280122E0420E511CFC
S1130F30F801A080B18036FE03C0692D70E002C0C4
S1130F406FEF7FEFC5010E94C7084C01F32DF068D5
S1130F503F2E820133FC1BC0822D90E08816990637
S1130F60B0F4B60180E290E00E94DD082A94F4CF48
S1130F70F50137FC859137FE81915F01B60190E060
S1130F800E94DD0821102A9421E0821A910881141C
S1130F90910471F7E8C0843611F0893641F5F801FF
S1130FA037FE07C060817181828193810C5F1F4F7E
S1130FB008C060817181072E000C880B990B0E5FAD
S1130FC01F4FF32DFF763F2E97FF09C09095809514
S1130FD0709561957F4F8F4F9F4FF0683F2E2AE0A9
S1130FE030E0A3010E941909882E861845C0853770
S1130FF031F4232D2F7EB22E2AE030E025C0932D2C
S1131000997FB92E8F36C1F018F4883579F0B5C0C0
S1131010803719F0883721F0B0C0E92FE061BE2E87
S1131020B4FE0DC0FB2DF460BF2E09C034FE0AC00F
S1131030292F2660B22E06C028E030E005C020E14A
S113104030E002C020E132E0F801B7FE07C0608161
S11310507181828193810C5F1F4F06C06081718111
S113106080E090E00E5F1F4FA3010E941909882EB3
S11310708618FB2DFF773F2E36FE0DC0232D2E7FC5
S1131080A22E891458F434FE0BC032FC09C0832DFF
S11310908E7EA82E05C0B82CA32C03C0B82C01C08A
S11310A0B92CA4FE0FC0FE01E80DF11D8081803330
S11310B021F49A2D997EA92E09C0A2FE06C0B394EC
S11310C0B39404C08A2D867809F0B394A3FC11C0AC
S11310D0A0FE06C0B21488F4280C922C9B180EC0F3
S11310E0B21460F4B60180E290E00E94DD08B3948B
S11310F0F7CFB21418F42B1802C0982C212CA4FE9C
S113110010C0B60180E390E00E94DD08A2FE17C083
S1131110A1FC03C088E790E002C088E590E0B60136
S11311200CC08A2D867859F0A1FE02C08BE201C062
S113113080E2A7FC8DE2B60190E00E94DD088914EC
S113114038F4B60180E390E00E94DD089A94F7CF6A
S11311508A94F301E80DF11D8081B60190E00E94AC
S1131160DD088110F5CF222009F442CEB60180E2D9
S113117090E00E94DD082A94F6CFF60186819781DB
S113118002C08FEF9FEF2B96E2E10C949309FC01D0
S11311900590615070400110D8F7809590958E0F9E
S11311A09F1F0895FC016150704001900110D8F711
S11311B0809590958E0F9F1F08950F931F93CF9343
S11311C0DF93FB01238121FD03C08FEF9FEF2CC030
S11311D022FF16C046815781248135814217530767
S11311E044F4A081B1819D012F5F3F4F318320835F
S11311F08C93268137812F5F3F4F3783268314C01A
S11312008B01EC01FB010084F185E02D0995892B0C
S1131210E1F6D80116968D919C9117970196179631
S11312209C938E931697CE01DF91CF911F910F91CE
S11312300895FA01AA27283051F1203181F1E89468
S11312406F936E7F6E5F7F4F8F4F9F4FAF4FB1E0B5
S11312503ED0B4E03CD0670F781F891F9A1FA11DB0
S1131260680F791F8A1F911DA11D6A0F711D811DB1
S1131270911DA11D20D009F468943F912AE0269F76
S113128011243019305D3193DEF6CF010895462FD5
S11312904770405D4193B3E00FD0C9F7F6CF462FB6
S11312A04F70405D4A3318F0495D31FD405241931F
S11312B002D0A9F7EACFB4E0A695979587957795DC
S11312C06795BA95C9F700976105710508959B0163
S11312D0AC010A2E06945795479537952795BA95EC
S11312E0C9F7620F731F841F951FA01D08952F92C5
S11312F03F924F925F926F927F928F929F92AF92A2
S1131300BF92CF92DF92EF92FF920F931F93CF93EE
S1131310DF93CDB7DEB7CA1BDB0B0FB6F894DEBF85
S11313200FBECDBF09942A88398848885F846E84AB
S11313307D848C849B84AA84B984C884DF80EE80F5
S1131340FD800C811B81AA81B981CE0FD11D0FB6FE
S1131350F894DEBF0FBECDBFED010895F894FFCF22
S113136080CC014573706572612025642076616CC0
S11313702E00256400507265706172616E646F00A6
S11313807061726120636F6D656E7A61720045737E
S113139063726962652E2E2E005465726D696E61EA
S11313A0646F004573706572616E646F2043000062
S9030000FC
