:020000020000FC
:100000000C942A000C9402010C9403010C9404013A
:100010000C9405010C9406010C9407010C94080142
:100020000C9409010C940A010C940B010C940C0122
:100030000C940D010C940E010C940F010C94100102
:100040000C9411010C9412010C9413010C941401E2
:100050000C94150104E00EBF0FE50DBF00EE0ABBC6
:100060000FEF0BBB0FEF07BB00E008BB5FEF54BB0C
:1000700050E055BB7FEF71BB70E072BB40E000C049
:10008000C89BECCF0FEF0BBBDD9800000000C99BB5
:100090001FC0CA9B32C0CB9B45C0CC9B5FC0DD9AC2
:1000A000DE9800000000C99B1AC0CA9B2DC0CB9BE4
:1000B00040C0CC9B4CC0DE9ADF9800000000C99B7A
:1000C00015C0CA9B28C0CB9B3BC0CC9B4EC0D8CF91
:1000D0008FD0C99BFECF8CD001E054D0D1CF88D037
:1000E000C99BFECF85D002E04DD0CACF81D0C99B3D
:1000F000FECF7ED003E046D0C3CF7AD0CA9BFECFDE
:1001000077D004E03FD0BCCF73D0CA9BFECF70D075
:1001100005E038D0B5CF6CD0CA9BFECF69D006E0E1
:1001200031D0AECF65D0CB9BFECF62D007E02AD0D6
:10013000A7CF5ED0CB9BFECF5BD008E023D0A0CF73
:1001400057D0CB9BFECF54D009E01CD099CF50D0D4
:10015000CC9BFECF4DD000E015D092CF49D0CC9BA8
:10016000FECF46D0423041F08BCF42D0CC9BFECF69
:100170003FD0423021F084CF90E0439581CF9CE086
:1001800043957ECF403039F0413049F0433069F03B
:10019000443079F075CF502F05BB439571CF602F58
:1001A0000295052B05BB43956BCF702F02BB439582
:1001B00067CF802F0295072B02BB43950AE0509F23
:1001C000060E502D709F080E702D903009F003D050
:1001D000570F00E003C0571B00E000C05A3008F47E
:1001E00003C003955A50FACF5295052B08BB48CF50
:1001F000F7E9E6E0D2E9DA95F1F7EA95D9F7FA9569
:10020000C1F7000018951895189518951895189528
:100210001895189518951895189518951895189576
:0C022000189518951895189518951895C4
:00000001FF
