:020000020000FC
:100000000C942A000C94DC000C94DD000C94DE00AF
:100010000C94DF000C94E0000C94E1000C94E200DE
:100020000C94E3000C94E4000C94E5000C94E600BE
:100030000C94E7000C94E8000C94E9000C94EA009E
:100040000C94EB000C94EC000C94ED000C94EE007E
:100050000C94EF0014E01EBF1FE51DBF10EF1ABB8C
:100060001FEF11BB1FEF12BB10E012BB1FEF1BBB3A
:10007000DC9800000000C89B2BC0C99B3EC0CA9BF7
:1000800051C0CB9B78C0DC9ADD9800000000C89B73
:1000900026C0C99B39C0CA9B4CC0CB9B71C0DD9A9E
:1000A000DE9800000000C89B21C0C99B34C0CA9BD9
:1000B00047C0CB9B6CC0DE9ADF9800000000C89B55
:1000C00046C0C99B49C0CA9B4CC0CB9B4FC0CECF3A
:1000D00010E862D066D0C89BFECF63D0C7CF10E4D3
:1000E0005BD05FD0C89BFECF5CD0C0CF10EC54D0AB
:1000F00058D0C89BFECF55D0B9CF10E24DD051D0CB
:10010000C99BFECF4ED0B2CF10EA46D04AD0C99B91
:10011000FECF47D0ABCF10E63FD043D0C99BFECF38
:1001200040D0A4CF10EE38D03CD0CA9BFECF39D0FF
:100130009DCF10E131D035D0CA9BFECF32D096CFC3
:1001400010E92AD02ED0CA9BFECF2BD08FCF29D03A
:10015000C89BFECF26D08ACF24D0C99BFECF21D00A
:1001600085CF1FD0CA9BFECF1CD080CF1AD0CB9B8F
:10017000FECF17D07BCF15D0CB9BFECF12D076CF42
:1001800010E00AD00ED0CB9BFECF0BD06FCF09D0A2
:10019000CB9BFECF06D06ACF212B22BB212F2295ED
:1001A0000895D5E6E4EAEA95F1F7DA95D9F7D1E0D2
:1001B000DA95F1F700000000189518951895189534
:1001C00018951895189518951895189518951895C7
:1001D00018951895189518951895189518951895B7
:00000001FF
