S01800003035496E74657272757063696F6E65732E73726563CD
S11300000C942A000C943C000C943C000C943C008E
S11300100C943C000C943C000C943C000C943C006C
S11300200C943C000C943C000C943C000C943C005C
S11300300C943C000C943C000C943C000C943C004C
S11300400C943C000C943C000C943C000C943C003C
S11300500C943C0011241FBECFE5D4E0DEBFCDBF1D
S113006020E0A0E6B0E001C01D92A236B207E1F79D
S11300700E949E010C94D2010C940000FC0180812A
S113008090E002C0959587956A95E2F7F1E08F2795
S113009081700895CF93C82F8FE493EC0197F1F703
S11300A000C000006C2F89E390E00E943E008111A3
S11300B0F9CF8FE493EC0197F1F700C00000CF91E2
S11300C00895CF938EEF8BBB0000000064E089E3BA
S11300D090E00E943E00882329F084E00E944A00B8
S11300E0CDE0BAC065E089E390E00E943E00882339
S11300F029F085E00E944A00CCE0AEC066E089E3C6
S113010090E00E943E00882329F086E00E944A0085
S1130110CBE0A2C067E089E390E00E943E00882320
S113012029F087E00E944A00CAE096C08DEF8BBB9D
S113013064E089E390E00E943E00882329F084E093
S11301400E944A00CFE088C065E089E390E00E9405
S11301503E00882329F085E00E944A00C9E07CC063
S113016066E089E390E00E943E00882329F086E05F
S11301700E944A00C6E070C067E089E390E00E94F4
S11301803E00C82F882329F087E00E944A00C3E07C
S113019063C08BEF8BBB64E089E390E00E943E0078
S11301A0882321F084E00E944A0056C065E089E378
S11301B090E00E943E00882329F085E00E944A00D6
S11301C0C8E04AC066E089E390E00E943E008823CC
S11301D029F086E00E944A00C5E03EC067E089E35A
S11301E090E00E943E00882329F087E00E944A00A4
S11301F0C2E032C087EF8BBB64E089E390E00E94E9
S11302003E00882329F084E00E944A00CEE024C006
S113021065E089E390E00E943E00882329F085E0B0
S11302200E944A00C7E018C066E089E390E00E949B
S11302303E00882329F086E00E944A00C4E00CC0F6
S113024067E089E390E00E943E00882309F43ACFF6
S113025087E00E944A00C1E08C2FCF9108958091DD
S11302606000811101C015BA80916000813011F4E1
S113027080E285BB80916000823011F480E185BB0F
S113028080916000833011F480E385BB809160002D
S1130290843011F488E085BB80916000853011F4CE
S11302A088E285BB80916000863011F488E185BBCB
S11302B080916000873011F488E385BB80916000F1
S11302C0883011F484E085BB80916000893011F49A
S11302D084E285BB089582BB811103C08FE08CBF8B
S11302E00895813019F480E18CBF0895823019F4A7
S11302F082E18CBF0895833019F484E18CBF0895A2
S1130300843019F485E18CBF0895853019F487E1B0
S11303108CBF0895863019F489E18CBF0895873025
S113032019F48AE18CBF0895883019F48CE18CBFEC
S11303300895893011F48EE18CBF08959FE09ABB33
S11303408FEF8BBB84BB15BA28E027BB88BB12BEDA
S11303509CBF9CE693BF81BB12BA0E94610080934C
S113036061008D3029F4809160000E946B01F5CF0B
S1130370893059F490916000993038F49F5F9093DC
S1130380600091BB0E942F01E8CF813031F780914A
S11303906000882311F381508093600081BB0E9428
S10B03A02F01DBCFF894FFCF1D
S9030000FC
