S0120000303841727265676C6F732E737265636B
S11300000C942A000C9447000C9447000C9447006D
S11300100C9447000C9447000C9447000C94470040
S11300200C9447000C9447000C9447000C94470030
S11300300C9447000C9447000C9447000C94470020
S11300400C9447000C9447000C9447000C94470010
S11300500C94470011241FBECFE5D4E0DEBFCDBF12
S113006011E0A0E6B0E0E8E4F4E102C005900D92EE
S1130070AC3FB107D9F722E0ACEFB1E001C01D926B
S1130080A732B207E1F70E9458020C94220A0C949A
S11300900000E3EDF0E33197F1F700C0000029B36D
S11300A030E0082E02C0359527950A94E2F720FF28
S11300B0F6CF83ED90E30197F1F700C000000895B7
S11300C08091FC018F5F8093FC018EEF8BBB00005D
S11300D00000CC9906C084E00E944900809173001E
S11300E00895CD9906C085E00E94490080916F0073
S11300F00895CE9906C086E00E94490080916B0065
S11301000895CF9906C087E00E9449008091670056
S113011008958DEF8BBBCC9906C084E00E94490002
S1130120809172000895CD9906C085E00E9449002F
S113013080916E000895CE9906C086E00E94490021
S113014080916A000895CF9906C087E00E94490013
S11301508091660008958BEF8BBBCC9906C084E038
S11301600E944900809171000895CD9906C085E0F0
S11301700E94490080916D000895CE9906C086E0E2
S11301800E944900809169000895CF9906C087E0D4
S11301900E94490080916500089587EF8BBBCC993C
S11301A006C084E00E944900809170000895CD99B2
S11301B006C085E00E94490080916C000895CE99A4
S11301C006C086E00E944900809168000895CF9996
S11301D077CF87E00E944900809164000895FC0174
S11301E0408121E030E002C0220F331F6A95E2F71C
S11301F0242B20830895FC01908121E030E002C08B
S1130200220F331F6A95E2F720952923208308954E
S113021085BB64E085E390E00E94FB0065E085E334
S113022090E00E94FB0066E085E390E00E94EF000E
S113023083EC99E00197F1F700C0000066E085E3E4
S113024090E00E94FB00089584B3807F84BB64E047
S113025085E390E00E94FB0065E085E390E00E9466
S1130260EF0066E085E390E00E94EF0083EC99E004
S11302700197F1F700C0000066E085E390E00E947A
S1130280FB009B9915C093E09A95F1F7000066E096
S113029085E390E00E94EF0083EC99E00197F1F789
S11302A000C0000066E085E390E00E94FB00D9CF27
S11302B066E085E390E00E94EF0083EC99E001970B
S11302C0F1F700C0000066E085E390E00E94FB00C7
S11302D064E085E390E00E94FB0065E085E390E044
S11302E00E94FB0084B38F6784BB0895CF93C82F0B
S11302F082958F7085BB64E085E390E00E94EF00F7
S113030065E085E390E00E94FB0066E085E390E011
S11303100E94EF0083EC99E00197F1F700C0000020
S113032066E085E390E00E94FB00CF70C5BB64E00B
S113033085E390E00E94EF0065E085E390E00E9491
S1130340FB0066E085E390E00E94EF0083EC99E017
S11303500197F1F700C0000066E085E390E00E9499
S1130360FB0064E085E390E00E94FB000E9424010E
S1130370CF910895CF93DF93FC0103C00E947601CF
S1130380FE01EF01219680818111F8CFDF91CF9199
S11303900895CF93C82F82958F7085BB64E085E361
S11303A090E00E94FB0065E085E390E00E94FB0082
S11303B066E085E390E00E94EF0083EC99E001970A
S11303C0F1F700C0000066E085E390E00E94FB00C6
S11303D0CF70C5BB64E085E390E00E94FB0065E05C
S11303E085E390E00E94FB0066E085E390E00E94D4
S11303F0EF0083EC99E00197F1F700C0000066E09C
S113040085E390E00E94FB000E942401CF910895AF
S11304100F931F93CF93DF938C01EB0181E00E9434
S1130420C90182E00E94C901C8010E94BA0180EC9E
S11304300E94C901CE010E94BA01DF91CF911F91A0
S11304400F9108958FE784BB85EA9EE00197F1F749
S113045000C0000083E00E94080181EE94E001974F
S1130460F1F700C0000083E00E94080191E29A9530
S1130470F1F7000083E00E94080181E28A95F1F718
S1130480000082E00E94080191E29A95F1F70000D1
S113049088E20E94C90188E00E94C90181E00E94AB
S11304A0C90186E00E94C9018CE00E94C901089537
S11304B0CF93DF93CDB7DEB7A3970FB6F894DEBF23
S11304C00FBECDBF84E1EDEFF1E0DF01282F1D92D7
S11304D02A95E9F7E2E1F2E0DF011D928A95E9F756
S11304E00E9422028FE08ABB8FEF8BBB87BB18BAB6
S11304F011BA77247394512C612C1BA2312C311026
S113050012C085E1E4E7F0E0DE01119601900D925E
S11305108A95E1F71A8ABE016E5E7F4FCE0101967D
S11305200E94080233940E946000D82E8091FC013E
S113053090E00E94CA06DD2009F473C1B1E03B12C9
S1130540A1C0DD2009F46DC12AE0D21609F469C105
S11305508BE0D81609F465C19CE0D91609F461C191
S1130560ADE0DA1609F45DC1BEE0DB1609F459C149
S11305702FE0D21609F455C11F92DF9289E890E06A
S11305809F938F93CE0101967C019F938F930E943A
S1130590D5068E010E5E1F4F8DE0E9EAF0E0D8012A
S11305A001900D928A95E1F7B801C7010E940802F3
S11305B09FEDA3E9B4E09150A040B040E1F700C042
S11305C0000080E1E6E9F0E0D70101900D928A9500
S11305D0E1F71F92DF9286EA90E09F938F931F9337
S11305E00F930E94D506B801C7010E9408022FED9F
S11305F083E994E0215080409040E1F700C000007E
S11306008EE0E6EBF0E0D70101900D928A95E1F7D8
S11306108EE0E4ECF0E0D80101900D928A95E1F7C8
S1130620B801C7010E940802AFEDB3E924E0A1506C
S1130630B0402040E1F700C000008CE0E2EDF0E0C3
S1130640D70101900D928A95E1F782E1EEEDF0E099
S1130650D80101900D928A95E1F7B801C7010E9473
S113066008028FED93E9A4E081509040A040E1F7A7
S113067000C0000033940FB6F894DEBF0FBECDBFA8
S11306804D2CCFC092E03912CCC0ADE0DA12C9C013
S113069089E0E0EFF0E0DE01119601900D928A9579
S11306A0E1F78DE0E9EFF0E0DE01529601900D9262
S11306B08A95E1F7BE016E5E7F4FCE0101960E94DE
S11306C00802BFE32DE083E0B15020408040E1F711
S11306D000C0000011E072C00E94C50681709078CD
S11306E0992324F401978E6F9F6F019680931102D2
S11306F00E94C5066AE070E00E94510680932602BB
S11307002091110230E0482F50E0F901EE0FFF1F55
S1130710C901880F991F880F991F880F991FE80F27
S1130720F91FE350FE4FE40FF51F80818111D4CFF0
S1130730C901880F991F220F331F220F331F220F65
S1130740331F820F931F83509E4FFC01E40FF51F4C
S113075021E020831F921F9386E091E09F938F9363
S1130760DE0111966D01BF93AF930E94D50680916F
S113077026021F928F93809111021F928F9382E120
S113078091E09F938F937E01B2E1EB0EF11CFF92F7
S1130790EF920E94D506B701C6010E9408022FE31A
S11307A08DE093E0215080409040E1F700C00000CC
S11307B01F5F0FB6F894DEBF0FBECDBF411608F021
S11307C08BCF642C660C1F926F9288E191E09F930B
S11307D08F938E010F5F1F4F1F930F930E94D506B7
S11307E089E0E2E2F1E0DE01529601900D928A95F1
S11307F0E1F7BE016E5E7F4FC8010E940802BFE9A7
S113080026E881E0B15020408040E1F700C00000BC
S113081033940F900F900F900F900F900F9091E0E2
S11308209BA3ABA1A13009F06ACE33942224239474
S113083034C2E72CF12C1F927F928BE291E09F93BC
S11308408F938E010F5F1F4F1F930F930E94D50646
S11308501A8ABE016E5E7F4FC8010E940802BFE97A
S113086026E881E0B15020408040E1F700C000005C
S11308700F900F900F900F900F900F900E946000B8
S1130880182F8A30D8F7C82ED12C1F928F93FF923D
S1130890EF9286E391E09F938F93DE0111965D01C1
S11308A0BF93AF930E94D5061A8ABE016E5E7F4F36
S11308B0C5010E9408020FB6F894DEBF0FBECDBF7B
S11308C00E946000082F8A30D8F7A82EB12CC601E8
S11308D0880F991F880F991F880F991FF601EE0F33
S11308E0FF1FE80FF91FEE5EFD4FEA0DFB1D80812F
S11308F08F5F80831F920F931F921F93FF92EF923B
S113090085E491E09F938F93DE0111964D01BF938F
S1130910AF930E94D5061A8ABE016E5E7F4FC40152
S11309200E940802BFE52AEE80E0B15020408040DA
S1130930E1F700C000000FB6F894DEBF0FBECDBFD4
S1130940123068F11F920F931F921F93FF92EF9240
S113095085E491E09F938F939F928F920E94D50696
S113096080E1E9E5F1E0DE01529601900D928A956D
S1130970E1F7BE016E5E7F4FC4010E940802BFE32F
S11309802DE083E0B15020408040E1F700C000003A
S113099073940FB6F894DEBF0FBECDBFB2C0C601CC
S11309A0880F991F880F991F880F991FF601EE0F62
S11309B0FF1FE80FF91FE350FE4FEA0DFB1D808176
S11309C0813009F045C09601220F331F220F331FD7
S11309D0220F331FF601EE0FFF1FE20FF31FEE5E2F
S11309E0FD4FEA0DFB1D9081913091F553941F92B8
S11309F00F931F921F93FF92EF9285E491E09F93D0
S1130A008F938E010F5F1F4F1F930F930E94D50684
S1130A1088E0E9E6F1E0DE01529601900D928A95B4
S1130A20E1F7BE016E5E7F4FC8010E940802BFE37A
S1130A302DE083E0B15020408040E1F700C0000089
S1130A40739458BA0FB6F894DEBF0FBECDBF59C029
S1130A50813099F49601220F331F220F331F220F86
S1130A60331FF601EE0FFF1FE20FF31FEE5EFD4F83
S1130A70EA0DFB1D90819923A9F0811142C0C601A2
S1130A80880F991FCC0CDD1CCC0CDD1CCC0CDD1CA0
S1130A908C0D9D1D8E5E9D4FFC01EA0DFB1D80811A
S1130AA0813079F51F920F931F921F93FF92EF925B
S1130AB081E791E09F938F93CE0101967C019F93F0
S1130AC08F930E94D50686E0E6E8F1E0DE015296B7
S1130AD001900D928A95E1F7BE016E5E7F4FC701CA
S1130AE00E9408029FE3ADE0B3E09150A040B04003
S1130AF0E1F700C0000073940FB6F894DEBF0FBE98
S1130B00CDBF451062C081E1E8ECF1E0DE01119651
S1130B1001900D928A95E1F78BE0ECE8F1E0DE01BB
S1130B20529601900D928A95E1F7BE016E5E7F4F59
S1130B30CE0101960E9408029FE3ADE0B3E091501C
S1130B40A040B040E1F700C000008BE0E7E9F1E02D
S1130B50DE01119601900D928A95E1F78DE0E2EAAB
S1130B60F1E0DE01529601900D928A95E1F7BE0103
S1130B706E5E7F4FCE0101960E9408022FE38DE046
S1130B8093E0215080409040E1F700C0000084E1F0
S1130B90EDEFF1E0DF01282F1D922A95E9F7E2E15C
S1130BA0F2E0DF011D928A95E9F70E9422028FE0AC
S1130BB08ABB8FEF8BBB87BB18BA11BA77247394A7
S1130BC0512C612C1BA2312C9ACC621065C0541498
S1130BD008F062C081E1E9EDF1E0DE0111960190D7
S1130BE00D928A95E1F78DE0EFEAF1E0DE0152968D
S1130BF001900D928A95E1F7BE016E5E7F4FCE01A2
S1130C0001960E940802BFE32DE083E0B15020402A
S1130C108040E1F700C000008CE0ECEBF1E0DE0185
S1130C20119601900D928A95E1F781E1EAEEF1E0E7
S1130C30DE01529601900D928A95E1F7BE016E5E37
S1130C407F4FCE0101960E9408029FE3ADE0B3E01E
S1130C509150A040B040E1F700C0000084E1EDEF06
S1130C60F1E0DF01282F1D922A95E9F7E2E1F2E095
S1130C70DF011D928A95E9F70E9422028FE08ABB68
S1130C808FEF8BBB87BB18BA11BA77247394512C9E
S1130C90612C1BA2312C33CC2394621408F0C9CDEF
S1130CA02ECC97FB072E16F4009407D077FD09D0BD
S1130CB00E94650607FC05D03EF4909581959F4FF0
S1130CC00895709561957F4F0895AA1BBB1B51E150
S1130CD007C0AA1FBB1FA617B70710F0A61BB70BA8
S1130CE0881F991F5A95A9F780959095BC01CD014D
S1130CF008958F929F92AF92BF92CF92DF92EF921C
S1130D00FF92CF93DF93EC01688179818A819B8183
S1130D10611571058105910521F464E279ED8BE596
S1130D2097E02DE133EF41E050E00E94880949014A
S1130D305A019B01AC01A7EAB1E40E94A7096B0127
S1130D407C01ACEEB4EFA50194010E94B509DC016D
S1130D50CB018C0D9D1DAE1DBF1DB7FF03C00197B8
S1130D60A109B04888839983AA83BB839F77DF91C5
S1130D70CF91FF90EF90DF90CF90BF90AF909F9076
S1130D808F9008950E947906089580E690E00E946D
S1130D9079060895A0E0B0E080936000909361002C
S1130DA0A0936200B09363000895AEE0B0E0EBED71
S1130DB0F6E00C94C8090D891E8986E08C831A8399
S1130DC009838FEF9FE79E838D83AE01475E5F4F5C
S1130DD06F89788DCE0101960E94F706EF81F88520
S1130DE0E00FF11F10822E96E4E00C94E409ABE0CE
S1130DF0B0E0EDEFF6E00C94BA096C017B018A01D6
S1130E00FC0117821682838181FFCCC1CE01019639
S1130E103C01F6019381F70193FD859193FF819144
S1130E207F01882309F4BAC1853239F493FD859191
S1130E3093FF81917F01853229F4B60190E00E94ED
S1130E40EE08E7CF912C212C312CFFE1F315D8F0DB
S1130E508B3279F038F4803279F08332A1F4232D87
S1130E6020611DC08D3261F0803369F4232D21602F
S1130E7016C0832D8260382EE32DE4603E2E2AC0F6
S1130E80F32DF8601DC037FC2DC020ED280F2A304B
S1130E9040F08E32B9F436FC81C1232D2064322E09
S1130EA019C036FE06C08AE0989E200D1124922EA9
S1130EB011C0EAE02E9E200D1124222EF32DF062A3
S1130EC03F2E08C08C3621F4832D8068382E02C052
S1130ED0883641F4F70193FD859193FF81917F0159
S1130EE08111B3CF982F9F7D9554933028F40C5FD4
S1130EF01F4F9FE399830DC0833631F0833771F020
S1130F00833509F059C021C0F801808189830E5FBF
S1130F101F4F88248394912C530113C02801F2E0BD
S1130F204F0E511CF801A080B18036FE03C0692D1C
S1130F3070E002C06FEF7FEFC5010E94E3084C012F
S1130F408201F32DFF773F2E16C0280122E0420EC6
S1130F50511CF801A080B18036FE03C0692D70E0F9
S1130F6002C06FEF7FEFC5010E94D8084C01F32D3A
S1130F70F0683F2E820133FC1BC0822D90E088165E
S1130F809906B0F4B60180E290E00E94EE082A943B
S1130F90F4CFF50137FC859137FE81915F01B601ED
S1130FA090E00E94EE0821102A9421E0821A910810
S1130FB08114910471F7E8C0843611F0893641F543
S1130FC0F80137FE07C060817181828193810C5FD3
S1130FD01F4F08C060817181072E000C880B990B8C
S1130FE00E5F1F4FF32DFF763F2E97FF09C090959C
S1130FF08095709561957F4F8F4F9F4FF0683F2E7E
S11310002AE030E0A3010E942A09882E861845C0F0
S1131010853731F4232D2F7EB22E2AE030E025C00F
S1131020932D997FB92E8F36C1F018F4883579F055
S1131030B5C0803719F0883721F0B0C0E92FE061DE
S1131040BE2EB4FE0DC0FB2DF460BF2E09C034FECD
S11310500AC0292F2660B22E06C028E030E005C061
S113106020E130E002C020E132E0F801B7FE07C021
S113107060817181828193810C5F1F4F06C0608102
S1131080718180E090E00E5F1F4FA3010E942A0946
S1131090882E8618FB2DFF773F2E36FE0DC0232D9C
S11310A02E7FA22E891458F434FE0BC032FC09C0E2
S11310B0832D8E7EA82E05C0B82CA32C03C0B82C7B
S11310C001C0B92CA4FE0FC0FE01E80DF11D808102
S11310D0803321F49A2D997EA92E09C0A2FE06C060
S11310E0B394B39404C08A2D867809F0B394A3FC16
S11310F011C0A0FE06C0B21488F4280C922C9B18D0
S11311000EC0B21460F4B60180E290E00E94EE08D2
S1131110B394F7CFB21418F42B1802C0982C212CD6
S1131120A4FE10C0B60180E390E00E94EE08A2FE87
S113113017C0A1FC03C088E790E002C088E590E0F6
S1131140B6010CC08A2D867859F0A1FE02C08BE24C
S113115001C080E2A7FC8DE2B60190E00E94EE0897
S1131160891438F4B60180E390E00E94EE089A9462
S1131170F7CF8A94F301E80DF11D8081B60190E068
S11311800E94EE088110F5CF222009F442CEB60168
S113119080E290E00E94EE082A94F6CFF601868160
S11311A0978102C08FEF9FEF2B96E2E10C94D60952
S11311B0FC010590615070400110D8F7809590951E
S11311C08E0F9F1F0895FC01615070400190011023
S11311D0D8F7809590958E0F9F1F08950F931F93B6
S11311E0CF93DF93FB01238121FD03C08FEF9FEF9A
S11311F02CC022FF16C046815781248135814217B5
S1131200530744F4A081B1819D012F5F3F4F318387
S113121020838C93268137812F5F3F4F378326832A
S113122014C08B01EC01FB010084F185E02D0995CC
S1131230892BE1F6D80116968D919C91179701960A
S113124017969C938E931697CE01DF91CF911F91A1
S11312500F910895FA01AA27283051F1203181F124
S1131260E8946F936E7F6E5F7F4F8F4F9F4FAF4FAA
S1131270B1E03ED0B4E03CD0670F781F891F9A1FBD
S1131280A11D680F791F8A1F911DA11D6A0F711D71
S1131290811D911DA11D20D009F468943F912AE07D
S11312A0269F11243019305D3193DEF6CF01089565
S11312B0462F4770405D4193B3E00FD0C9F7F6CF96
S11312C0462F4F70405D4A3318F0495D31FD40525E
S11312D0419302D0A9F7EACFB4E0A69597958795F4
S11312E077956795BA95C9F70097610571050895D3
S11312F09B01AC010A2E069457954795379527957F
S1131300BA95C9F7620F731F841F951FA01D089516
S1131310052E97FB1EF400940E949F0957FD07D0E9
S11313200E94F10907FC03D04EF40C949F095095D8
S11313304095309521953F4F4F4F5F4F08959095BD
S11313408095709561957F4F8F4F9F4F08950E94B0
S1131350130AA59F900DB49F900DA49F800D911D1D
S113136011240895B7FF0C94A7090E94A709821BB2
S1131370930B08952F923F924F925F926F927F92B8
S11313808F929F92AF92BF92CF92DF92EF92FF9291
S11313900F931F93CF93DF93CDB7DEB7CA1BDB0B3D
S11313A00FB6F894DEBF0FBECDBF09942A883988E2
S11313B048885F846E847D848C849B84AA84B984E9
S11313C0C884DF80EE80FD800C811B81AA81B981F5
S11313D0CE0FD11D0FB6F894DEBF0FBECDBFED0109
S11313E00895A1E21A2EAA1BBB1BFD010DC0AA1F62
S11313F0BB1FEE1FFF1FA217B307E407F50720F07A
S1131400A21BB30BE40BF50B661F771F881F991FF4
S11314101A9469F760957095809590959B01AC013D
S1131420BD01CF010895A29FB001B39FC001A39F46
S1131430700D811D1124911DB29F700D811D112409
S10B1440911D0895F894FFCFFB
S1131448010000000102030A0405060B0708090C41
S11314580E000F0D4375616E74617320636F6F72B4
S113146864656E616461733F004573636F6E6465A0
S11314787265202564005475206465626573206272
S1131488757363617200256420636F6F7264656E9F
S1131498616461732E00322066696C6173202830A0
S11314A82C312900313020636F6C732028302C399B
S11314B8290050726573696F6E61202B200070617A
S11314C8726120636F6E74696E7561722E2E2E00C0
S11314D85472617461206465006D656D6F72697A18
S11314E861722E2E2E00437561647269746F202513
S11314F8640025642C2564005469656E6573202591
S11315086400696E74656E746F7300496E74656EF9
S1131518746F20256400496E74656E746F202564A9
S11315282028256400496E74656E746F2025642034
S11315382825642C20256429004E6F20657869735A
S11315487465206C75676172004163696572746FB4
S113155800496E74656E746F202325642028256401
S11315682C20256429004572726F72006D656D6FB9
S11315787269612121210047616E617374652121BB
S1131588210046656C69636964616465732100744C
S1131598616E206275656E61203A28005065726438
S11315A869737465212121005469656E657320652A
S11315B87863656C656E7465005475206D656D6F30
S11315C8726961206E6F20657300496E74656E746C
S10F15D861206465206E7565766F00006C
S9030000FC
