:100000000C94A7000C94C4000C94C4000C94C4007D
:100010000C94C4000C94C4000C94C4000C94C40050
:100020000C94C4000C94C4000C94C4000C94C40040
:100030000C94C4000C94C4000C94CD020C94C40025
:100040000C94C4000C94C4000C94C4000C946D0176
:100050000C94C40000407A10F35A00A0724E1809A4
:100060000010A5D4E80000E87648170000E40B541F
:10007000020000CA9A3B000000E1F50500008096EE
:100080009800000040420F000000A0860100000020
:10009000102700000000E8030000000064000000DA
:1000A00000000A00000000000100000000002C76A3
:1000B000D888DC674F0823DFC1DFAE59E1B1B796BE
:1000C000E5E3E453C63AE651997696E8E6C284261B
:1000D000EB898C9B62ED407C6FFCEFBC9C9F40F2F7
:1000E000BAA56FA5F490055A2AF75C936B6CF96773
:1000F0006DC11BFCE0E40D47FEF520E6B500D0ED38
:10010000902E0300943577050080841E080000209F
:100110004E0A000000C80C333333330F986E12833D
:100120001141EF8D2114893BE65516CFFEE6DB1811
:10013000D1844B381BF77C1D901DA4BBE4242032D6
:1001400084725E228100C9F124ECA1E53D271124CF
:100150001FBECFE5D4E0DEBFCDBF10E0A0E6B0E02B
:10016000E8EAF5E102C005900D92A63AB107D9F789
:1001700020E0A6EAB0E001C01D92AC3DB207E1F775
:100180000E944D030C94D20A0C940000E3EDF0E3BE
:100190003197F1F700C0000020B330E0082E02C014
:1001A000359527950A94E2F720FFF6CF83ED90E38B
:1001B0000197F1F700C0000008958EEF82BB0000A8
:1001C0000000849906C084E00E94C600809160000F
:1001D0000895859906C085E00E94C600809161005F
:1001E0000895869906C086E00E94C600809162004C
:1001F0000895879906C087E00E94C6008091630039
:1002000008958DEF82BB00000000849906C084E051
:100210000E94C600809164000895859906C085E01B
:100220000E94C600809165000895869906C086E008
:100230000E94C600809166000895879906C087E0F5
:100240000E94C6008091670008958BEF82BB00007A
:100250000000849906C084E00E94C6008091680076
:100260000895859906C085E00E94C60080916900C6
:100270000895869906C086E00E94C60080916A00B3
:100280000895879906C087E00E94C60080916B00A0
:10029000089587EF82BB00000000849906C084E0C7
:1002A0000E94C60080916C000895859906C085E083
:1002B0000E94C60080916D000895869906C086E070
:1002C0000E94C60080916E000895879976CF87E0DE
:1002D0000E94C60080916F0008951F920F920FB682
:1002E0000F9211240F900FBE0F901F901895E19957
:1002F000FECF9FBB8EBB6DBBF8948CB384608CBB70
:100300008CB382608CBB78940895E199FECF9FBB3B
:100310008EBB8CB381608CBB8DB30895FC01408192
:1003200021E030E002C0220F331F6A95E2F7242B50
:1003300020830895FC01908121E030E002C0220F6B
:10034000331F6A95E2F7209529232083089585BB02
:1003500064E085E390E00E949A0165E085E390E027
:100360000E949A0166E085E390E00E948E0183EC92
:1003700099E00197F1F700C0000066E085E390E0A6
:100380000E949A01089584B3807F84BB64E085E372
:1003900090E00E949A0165E085E390E00E948E0162
:1003A00066E085E390E00E948E0183EC99E001977E
:1003B000F1F700C0000066E085E390E00E949A013A
:1003C0009B9915C093E09A95F1F7000066E085E3EC
:1003D00090E00E948E0183EC99E00197F1F700C054
:1003E000000066E085E390E00E949A01D9CF66E0C4
:1003F00085E390E00E948E0183EC99E00197F1F78C
:1004000000C0000066E085E390E00E949A0164E08D
:1004100085E390E00E949A0165E085E390E00E9408
:100420009A0184B38F6784BB0895CF93C82F8295B8
:100430008F7085BB64E085E390E00E948E0165E0EB
:1004400085E390E00E949A0166E085E390E00E94D7
:100450008E0183EC99E00197F1F700C0000066E09F
:1004600085E390E00E949A01CF70C5BB64E085E30C
:1004700090E00E948E0165E085E390E00E949A0181
:1004800066E085E390E00E948E0183EC99E001979D
:10049000F1F700C0000066E085E390E00E949A0159
:1004A00064E085E390E00E949A010E94C301CF912D
:1004B0000895CF93DF93FC0103C00E941502FE0153
:1004C000EF01219680818111F8CFDF91CF910895BE
:1004D000CF93C82F82958F7085BB64E085E390E051
:1004E0000E949A0165E085E390E00E949A0166E02F
:1004F00085E390E00E948E0183EC99E00197F1F78B
:1005000000C0000066E085E390E00E949A01CF7091
:10051000C5BB64E085E390E00E949A0165E085E355
:1005200090E00E949A0166E085E390E00E948E01CF
:1005300083EC99E00197F1F700C0000066E085E3E5
:1005400090E00E949A010E94C301CF910895CF9339
:10055000DF93EC0180EC0E946802CE010E945902F8
:10056000DF91CF9108950F931F93CF93DF938C0169
:10057000EB0181E00E94680282E00E946802C801EB
:100580000E94590280EC0E946802CE010E9459022A
:10059000DF91CF911F910F9108951F920F920FB687
:1005A0000F9211242F933F934F935F936F937F93F9
:1005B0008F939F93AF93BF93EF93FF9365B1809118
:1005C000A6009091A7008115924070F08091A8003C
:1005D000813051F081E08093A80065EA70E080E707
:1005E00090E00E94B3020DC08091A6009091A700F8
:1005F0009C012F5F3F4F3093A7002093A6000E94DD
:1006000077018091A6009091A70088BBFF91EF91A0
:10061000BF91AF919F918F917F916F915F914F911A
:100620003F912F910F900FBE0F901F9018958FE75D
:1006300084BB85EA9EE00197F1F700C0000083E0EB
:100640000E94A70181EE94E00197F1F700C000003D
:1006500083E00E94A70191E29A95F1F7000083E000
:100660000E94A70181E28A95F1F7000082E00E94D2
:10067000A70191E29A95F1F7000088E20E946802D2
:1006800088E00E94680281E00E94680286E00E9481
:1006900068028CE00E9468020895CF93DF93CDB783
:1006A000DEB7A2970FB6F894DEBF0FBECDBF789429
:1006B0000E9417038FE081BB8FEF82BB80E687B972
:1006C00080BF8BEB86B91ABA1BBA83E088BF82E081
:1006D00089BF12BE83EF8CBF17BA81E00E94680207
:1006E0008CE0EDE7F0E0ABECB0E001900D928A9584
:1006F000E1F78BEC90E00E9459028DE083BF0E94ED
:10070000DD008111FCCFF8948CE0E9E8F0E0ABEC7F
:10071000B0E001900D928A95E1F78091A60090914A
:10072000A70001979093A7008093A6000E948501DF
:10073000682F70E080E090E00E94080520E030E043
:100740004CE452E40E9496046093C7007093C80082
:100750008093C9009093CA006091C7007091C8004F
:100760008091C9009091CA006E0122E1C20ED11C95
:10077000860122E041E00E949605DF92CF9285E952
:1007800090E09F938F938BEA90E09F938F930E94CA
:10079000B6056BEA70E08BEC90E00E94B302C0906B
:1007A000A600D090A7000F900F900F900F900F9081
:1007B0000F900E94DD00F82E3EE0831351C080911F
:1007C000A6009091A700892B09F44AC08091A60049
:1007D0009091A70001979093A7008093A600809125
:1007E000A6009091A7000E948501682F70E080E02C
:1007F00090E00E94080520E030E04CE452E40E94C2
:1008000096046093C7007093C8008093C9009093CA
:10081000CA006091C7007091C8008091C900909192
:10082000CA009E012F5F3F4F5901890122E041E03C
:100830000E949605BF92AF9285E990E09F938F93B7
:100840008BEA90E09F938F930E94B6058BEA90E02D
:100850000E94A7020F900F900F900F900F900F9093
:100860003FE0F31252C08091A6009091A7008C1532
:100870009D0508F04AC08091A6009091A7000196BE
:100880009093A7008093A6008091A6009091A70066
:100890000E948501682F70E080E090E00E940805CA
:1008A00020E030E04CE452E40E9496046093C700DC
:1008B0007093C8008093C9009093CA006091C700EC
:1008C0007091C8008091C9009091CA009E012F5F6D
:1008D0003F4F5901890122E041E00E949605BF92F5
:1008E000AF9285E990E09F938F938BEA90E09F937E
:1008F0008F930E94B6058BEA90E00E94A7020F90AA
:100900000F900F900F900F900F90F11052CF109208
:10091000A80078941092A7001092A60081E00E948F
:1009200068028AE990E00E945902E9CE0E94AA0476
:100930000C945C050E94550558F00E944E0540F04D
:1009400029F45F3F29F00C94450551110C94900552
:100950000C944B050E946D0568F39923B1F3552360
:1009600091F3951B550BBB27AA27621773078407C2
:1009700038F09F5F5F4F220F331F441FAA1FA9F358
:1009800035D00E2E3AF0E0E832D091505040E69546
:10099000001CCAF72BD0FE2F29D0660F771F881FA7
:1009A000BB1F261737074807AB07B0E809F0BB0B9A
:1009B000802DBF01FF2793585F4F3AF09E3F5105AE
:1009C00078F00C9445050C9490055F3FE4F3983E55
:1009D000D4F3869577956795B795F7959F5FC9F797
:1009E000880F911D9695879597F90895E1E0660F18
:1009F000771F881FBB1F621773078407BA0720F091
:100A0000621B730B840BBA0BEE1F88F7E0950895F9
:100A1000E89409C097FB3EF4909580957095619598
:100A20007F4F8F4F9F4F9923A9F0F92F96E9BB274E
:100A30009395F695879577956795B795F111F8CFCA
:100A4000FAF4BB0F11F460FF1BC06F5F7F4F8F4F35
:100A50009F4F16C0882311F096E911C0772321F02B
:100A60009EE8872F762F05C0662371F096E8862FC3
:100A700070E060E02AF09A95660F771F881FDAF71A
:100A8000880F9695879597F9089597F99F6780E85D
:100A900070E060E008959FEF80EC089500240A94D0
:100AA0001616170618060906089500240A94121649
:100AB0001306140605060895092E0394000C11F47C
:100AC000882352F0BB0F40F4BF2B11F460FF04C029
:100AD0006F5F7F4F8F4F9F4F089557FD9058440F82
:100AE000551F59F05F3F71F04795880F97FB991F8D
:100AF00061F09F3F79F0879508951216130614064A
:100B0000551FF2CF4695F1DF08C0161617061806D6
:100B1000991FF1CF86957105610508940895E894B1
:100B2000BB2766277727CB0197F90895EF920F939C
:100B30001F93CF93DF93E80147FD02C034E001C06B
:100B400034E1042E000C550B57FF03C0519541951D
:100B50005109E32E022F242FAE010E94B907CE01C6
:100B6000DF91CF911F910F91EF900895AEE0B0E02B
:100B7000ECEBF5E00C94A90A0D891E8986E08C83C4
:100B80001A8309838FEF9FE79E838D83AE01475EB3
:100B90005F4F6F89788DCE0101960E94D805EF8155
:100BA000F885E00FF11F10822E96E4E00C94C50A40
:100BB000ABE0B0E0EEEDF5E00C949B0A6C017B013C
:100BC0008A01FC0117821682838181FFCCC1CE018C
:100BD00001963C01F6019381F70193FD859193FF06
:100BE00081917F01882309F4BAC1853239F493FDDC
:100BF000859193FF81917F01853229F4B60190E0C0
:100C00000E94010AE7CF912C212C312CFFE1F31532
:100C1000D8F08B3279F038F4803279F08332A1F455
:100C2000232D20611DC08D3261F0803369F4232DA6
:100C3000216016C0832D8260382EE32DE4603E2EA5
:100C40002AC0F32DF8601DC037FC2DC020ED280F01
:100C50002A3040F08E32B9F436FC81C1232D206455
:100C6000322E19C036FE06C08AE0989E200D11244F
:100C7000922E11C0EAE02E9E200D1124222EF32D7B
:100C8000F0623F2E08C08C3621F4832D8068382E08
:100C900002C0883641F4F70193FD859193FF81915D
:100CA0007F018111B3CF982F9F7D9554933028F405
:100CB0000C5F1F4F9FE399830DC0833631F083375C
:100CC00071F0833509F059C021C0F8018081898312
:100CD0000E5F1F4F88248394912C530113C0280169
:100CE000F2E04F0E511CF801A080B18036FE03C027
:100CF000692D70E002C06FEF7FEFC5010E94F60919
:100D00004C018201F32DFF773F2E16C0280122E00F
:100D1000420E511CF801A080B18036FE03C0692D3F
:100D200070E002C06FEF7FEFC5010E94EB094C013C
:100D3000F32DF0683F2E820133FC1BC0822D90E022
:100D400088169906B0F4B60180E290E00E94010A8C
:100D50002A94F4CFF50137FC859137FE81915F012C
:100D6000B60190E00E94010A21102A9421E0821A23
:100D700091088114910471F7E8C0843611F0893626
:100D800041F5F80137FE07C060817181828193814E
:100D90000C5F1F4F08C060817181072E000C880B0B
:100DA000990B0E5F1F4FF32DFF763F2E97FF09C063
:100DB00090958095709561957F4F8F4F9F4FF0680C
:100DC0003F2E2AE030E0A3010E943D0A882E8618BB
:100DD00045C0853731F4232D2F7EB22E2AE030E036
:100DE00025C0932D997FB92E8F36C1F018F4883520
:100DF00079F0B5C0803719F0883721F0B0C0E92FFD
:100E0000E061BE2EB4FE0DC0FB2DF460BF2E09C004
:100E100034FE0AC0292F2660B22E06C028E030E03A
:100E200005C020E130E002C020E132E0F801B7FE69
:100E300007C060817181828193810C5F1F4F06C062
:100E40006081718180E090E00E5F1F4FA3010E94DE
:100E50003D0A882E8618FB2DFF773F2E36FE0DC0EB
:100E6000232D2E7FA22E891458F434FE0BC032FCA1
:100E700009C0832D8E7EA82E05C0B82CA32C03C0DC
:100E8000B82C01C0B92CA4FE0FC0FE01E80DF11D65
:100E90008081803321F49A2D997EA92E09C0A2FE6B
:100EA00006C0B394B39404C08A2D867809F0B39435
:100EB000A3FC11C0A0FE06C0B21488F4280C922C2A
:100EC0009B180EC0B21460F4B60180E290E00E945C
:100ED000010AB394F7CFB21418F42B1802C0982C5F
:100EE000212CA4FE10C0B60180E390E00E94010A0C
:100EF000A2FE17C0A1FC03C088E790E002C088E50D
:100F000090E0B6010CC08A2D867859F0A1FE02C08F
:100F10008BE201C080E2A7FC8DE2B60190E00E9466
:100F2000010A891438F4B60180E390E00E94010AB6
:100F30009A94F7CF8A94F301E80DF11D8081B601F0
:100F400090E00E94010A8110F5CF222009F442CEE0
:100F5000B60180E290E00E94010A2A94F6CFF601E1
:100F60008681978102C08FEF9FEF2B96E2E10C9470
:100F7000B70AA9E0B0E0EFEBF7E00C94A10A6A0130
:100F8000122FB02E2BE3201720F0FF24F394F00E45
:100F900002C02CE3F22E0F2D27E0AE014F5F5F4F12
:100FA0000E941309BC014981842F8970813031F07E
:100FB000E1FC06C0E0FE06C090E205C09DE203C071
:100FC0009BE201C090E05E2D507143FF3CC0911147
:100FD00002C083E001C084E0811718F4212F281B90
:100FE00001C020E051110BC0F601822F30E28823AE
:100FF00019F031938150FBCFC20ED11C20E0992310
:1010000029F0D6019C93F60131966F01C601039633
:10101000E2FE0AC03EE4D6013C9341E411964C93B3
:10102000119712963C9306C03EE6F601308341E6E6
:1010300041833283FC01322F40E2332309F442C062
:1010400041933150FACF42FF44C0911102C083E076
:1010500001C084E0811718F4212F281B01C020E073
:1010600051110BC0F601822F30E2882319F0319321
:101070008150FBCFC20ED11C20E0992329F0D6016C
:101080009C93F60131966F01C6010396E2FE0BC0F8
:1010900039E4D6013C933EE411963C93119736E433
:1010A00012963C9307C039E6F60130833EE6318361
:1010B00036E63283FC01322F40E2332319F04193AC
:1010C0003150FBCFFC01E20FF11D10828EEF9FEF3C
:1010D000A6C021E030E0911102C020E030E01616F9
:1010E00017061CF4FB01319602C0E1E0F0E02E0F80
:1010F0003F1FBB2021F0EB2DF0E0319602C0E0E075
:10110000F0E02E0F3F1FE12FF0E02E173F071CF4F9
:10111000121B212F01C020E08E2D887159F4F60199
:10112000822F30E2882319F031938150FBCFC20E19
:10113000D11C20E0992329F0D6019C93F601319629
:101140006F0151110BC0F601822F90E3882319F033
:1011500091938150FBCFC20ED11C20E00F2D060FC2
:101160009A81342F307144FF03C0913309F4015048
:10117000101624F4093018F008E001C001E0AB01BA
:1011800077FF02C040E050E0FB01E41BF50BA1E05B
:10119000B0E0AC0FBD1FEA0FFB1F8EE2A82E4B0183
:1011A000801A91080B2D10E01195019511094F3F00
:1011B000BFEF5B0721F4D601AC9211966D01641765
:1011C00075072CF08416950614F4818101C080E324
:1011D000415051093196D60111967D0140175107B2
:1011E00024F0D6018C936701E2CF6417750739F4B8
:1011F000963320F4953319F4311101C081E3F601DF
:101200008083F701822F90E2882319F09193815017
:10121000FBCFF701E20FF11D108280E090E02996EC
:10122000ECE00C94BD0A283008F027E03327DA01FF
:10123000990F311D87FD916000966105710539F4A4
:1012400032602E5F3D9330E32A95E1F708959F3F8A
:1012500030F080387105610509F03C5F3C5F3D93DB
:10126000913008F08068911DDF93CF931F930F9307
:10127000FF92EF92192F987F9695E92F9695969564
:10128000E90FFF27E255FF4F99273327EE24FF246C
:10129000A701E70105900894079428F4360FE71E8C
:1012A000F81E491F511D660F771F881F991F06944E
:1012B000A1F70590079428F4E70EF81E491F561F62
:1012C000C11D770F881F991F661F0694A1F705900F
:1012D000079428F4F80E491F561FC71FD11D880F09
:1012E000991F661F771F0694A1F70590079420F4B5
:1012F000490F561FC71FD81F990F661F771F881FDA
:101300000694A9F784911095177041F0D695C7956A
:1013100057954795F794E7941A95C1F7E4E5F0E0FF
:1013200068941590159135916591959105907FE29E
:101330007395E118F10A430B560BC90BD009C0F79E
:10134000E10CF11E431F561FC91FD01D7EF47033E0
:1013500011F48A95E6CFE894015030F0080F0AF4B2
:101360000027021708F4202F2395022F7A3328F044
:1013700079E37D932A95E9F710C07D932A9589F644
:10138000069497956795379517951794E118F10A84
:10139000430B560BC90BD00998F023957E9173959A
:1013A0007A3308F070E37C932013B8F77E91706174
:1013B0007D9330F0839571E37D9370E32A95E1F797
:1013C0001124EF90FF900F911F91CF91DF919927FA
:1013D00087FD90950895FC010590615070400110C3
:1013E000D8F7809590958E0F9F1F0895FC0161504E
:1013F000704001900110D8F7809590958E0F9F1F37
:1014000008950F931F93CF93DF93FB01238121FD59
:1014100003C08FEF9FEF2CC022FF16C0468157817B
:10142000248135814217530744F4A081B1819D0185
:101430002F5F3F4F318320838C93268137812F5F2D
:101440003F4F3783268314C08B01EC01FB010084DE
:10145000F185E02D0995892BE1F6D80116968D913D
:101460009C911797019617969C938E931697CE0191
:10147000DF91CF911F910F910895FA01AA2728308B
:1014800051F1203181F1E8946F936E7F6E5F7F4F51
:101490008F4F9F4FAF4FB1E03ED0B4E03CD0670FCD
:1014A000781F891F9A1FA11D680F791F8A1F911D20
:1014B000A11D6A0F711D811D911DA11D20D009F470
:1014C00068943F912AE0269F11243019305D3193B2
:1014D000DEF6CF010895462F4770405D4193B3E09B
:1014E0000FD0C9F7F6CF462F4F70405D4A3318F042
:1014F000495D31FD4052419302D0A9F7EACFB4E0F3
:10150000A6959795879577956795BA95C9F70097AA
:101510006105710508959B01AC010A2E069457954B
:10152000479537952795BA95C9F7620F731F841FA2
:10153000951FA01D08952F923F924F925F926F9238
:101540007F928F929F92AF92BF92CF92DF92EF9253
:10155000FF920F931F93CF93DF93CDB7DEB7CA1BD4
:10156000DB0B0FB6F894DEBF0FBECDBF09942A88FF
:10157000398848885F846E847D848C849B84AA84A7
:10158000B984C884DF80EE80FD800C811B81AA8134
:10159000B981CE0FD11D0FB6F894DEBF0FBECDBFFF
:0815A000ED010895F894FFCF5E
:1015A8000102030A0405060B0708090C0E000F0DBB
:1015B800454550524F4D206C6C656E610073656EE9
:1015C80073616E646F2E2E2E00556C74696D6F7387
:1015D8002076616C00257320560053656E73616E2A
:0615E800646F2E2E2E00A0
:00000001FF
